{
  "_format": "hh-sol-artifact-1",
  "contractName": "Operator",
  "sourceName": "contracts/Operator.sol",
  "abi": [
    {
      "inputs": [
        {
          "internalType": "address",
          "name": "initialOwner",
          "type": "address"
        },
        {
          "internalType": "address",
          "name": "_cosmicCowboys",
          "type": "address"
        },
        {
          "internalType": "address",
          "name": "_goldenCorn",
          "type": "address"
        },
        {
          "internalType": "address",
          "name": "_spaceSlop",
          "type": "address"
        },
        {
          "internalType": "address",
          "name": "_jupiterJunk",
          "type": "address"
        }
      ],
      "stateMutability": "nonpayable",
      "type": "constructor"
    },
    {
      "inputs": [
        {
          "internalType": "address",
          "name": "owner",
          "type": "address"
        }
      ],
      "name": "OwnableInvalidOwner",
      "type": "error"
    },
    {
      "inputs": [
        {
          "internalType": "address",
          "name": "account",
          "type": "address"
        }
      ],
      "name": "OwnableUnauthorizedAccount",
      "type": "error"
    },
    {
      "anonymous": false,
      "inputs": [
        {
          "indexed": true,
          "internalType": "address",
          "name": "previousOwner",
          "type": "address"
        },
        {
          "indexed": true,
          "internalType": "address",
          "name": "newOwner",
          "type": "address"
        }
      ],
      "name": "OwnershipTransferred",
      "type": "event"
    },
    {
      "inputs": [],
      "name": "cosmicCowboys",
      "outputs": [
        {
          "internalType": "contract CosmicCowboys",
          "name": "",
          "type": "address"
        }
      ],
      "stateMutability": "view",
      "type": "function"
    },
    {
      "inputs": [
        {
          "internalType": "address",
          "name": "to",
          "type": "address"
        },
        {
          "internalType": "string",
          "name": "uri",
          "type": "string"
        }
      ],
      "name": "createNPC",
      "outputs": [],
      "stateMutability": "nonpayable",
      "type": "function"
    },
    {
      "inputs": [
        {
          "internalType": "address",
          "name": "to",
          "type": "address"
        },
        {
          "internalType": "uint256",
          "name": "currencyAmount",
          "type": "uint256"
        },
        {
          "internalType": "uint256",
          "name": "foodAmount",
          "type": "uint256"
        },
        {
          "internalType": "uint256",
          "name": "suppliesAmount",
          "type": "uint256"
        }
      ],
      "name": "equipNPC",
      "outputs": [],
      "stateMutability": "nonpayable",
      "type": "function"
    },
    {
      "inputs": [],
      "name": "getLatestTokenId",
      "outputs": [
        {
          "internalType": "uint256",
          "name": "",
          "type": "uint256"
        }
      ],
      "stateMutability": "view",
      "type": "function"
    },
    {
      "inputs": [],
      "name": "getOwner",
      "outputs": [
        {
          "internalType": "address",
          "name": "",
          "type": "address"
        }
      ],
      "stateMutability": "view",
      "type": "function"
    },
    {
      "inputs": [],
      "name": "goldenCorn",
      "outputs": [
        {
          "internalType": "contract GoldenCorn",
          "name": "",
          "type": "address"
        }
      ],
      "stateMutability": "view",
      "type": "function"
    },
    {
      "inputs": [],
      "name": "jupiterJunk",
      "outputs": [
        {
          "internalType": "contract JupiterJunk",
          "name": "",
          "type": "address"
        }
      ],
      "stateMutability": "view",
      "type": "function"
    },
    {
      "inputs": [],
      "name": "newTokenId",
      "outputs": [
        {
          "internalType": "uint256",
          "name": "",
          "type": "uint256"
        }
      ],
      "stateMutability": "view",
      "type": "function"
    },
    {
      "inputs": [],
      "name": "owner",
      "outputs": [
        {
          "internalType": "address",
          "name": "",
          "type": "address"
        }
      ],
      "stateMutability": "view",
      "type": "function"
    },
    {
      "inputs": [],
      "name": "renounceOwnership",
      "outputs": [],
      "stateMutability": "nonpayable",
      "type": "function"
    },
    {
      "inputs": [],
      "name": "spaceSlop",
      "outputs": [
        {
          "internalType": "contract SpaceSlop",
          "name": "",
          "type": "address"
        }
      ],
      "stateMutability": "view",
      "type": "function"
    },
    {
      "inputs": [
        {
          "internalType": "address",
          "name": "newOwner",
          "type": "address"
        }
      ],
      "name": "transferOwnership",
      "outputs": [],
      "stateMutability": "nonpayable",
      "type": "function"
    }
  ],
  "bytecode": "0x60806040523480156200001157600080fd5b506040516200111a3803806200111a8339818101604052810190620000379190620002fc565b84600073ffffffffffffffffffffffffffffffffffffffff168173ffffffffffffffffffffffffffffffffffffffff1603620000ad5760006040517f1e4fbdf7000000000000000000000000000000000000000000000000000000008152600401620000a4919062000395565b60405180910390fd5b620000be81620001ce60201b60201c565b5083600160006101000a81548173ffffffffffffffffffffffffffffffffffffffff021916908373ffffffffffffffffffffffffffffffffffffffff16021790555082600260006101000a81548173ffffffffffffffffffffffffffffffffffffffff021916908373ffffffffffffffffffffffffffffffffffffffff16021790555081600360006101000a81548173ffffffffffffffffffffffffffffffffffffffff021916908373ffffffffffffffffffffffffffffffffffffffff16021790555080600460006101000a81548173ffffffffffffffffffffffffffffffffffffffff021916908373ffffffffffffffffffffffffffffffffffffffff1602179055505050505050620003b2565b60008060009054906101000a900473ffffffffffffffffffffffffffffffffffffffff169050816000806101000a81548173ffffffffffffffffffffffffffffffffffffffff021916908373ffffffffffffffffffffffffffffffffffffffff1602179055508173ffffffffffffffffffffffffffffffffffffffff168173ffffffffffffffffffffffffffffffffffffffff167f8be0079c531659141344cd1fd0a4f28419497f9722a3daafe3b4186f6b6457e060405160405180910390a35050565b600080fd5b600073ffffffffffffffffffffffffffffffffffffffff82169050919050565b6000620002c48262000297565b9050919050565b620002d681620002b7565b8114620002e257600080fd5b50565b600081519050620002f681620002cb565b92915050565b600080600080600060a086880312156200031b576200031a62000292565b5b60006200032b88828901620002e5565b95505060206200033e88828901620002e5565b94505060406200035188828901620002e5565b93505060606200036488828901620002e5565b92505060806200037788828901620002e5565b9150509295509295909350565b6200038f81620002b7565b82525050565b6000602082019050620003ac600083018462000384565b92915050565b610d5880620003c26000396000f3fe608060405234801561001057600080fd5b50600436106100b45760003560e01c80638da5cb5b116100715780638da5cb5b146101595780639384fbc114610177578063a5c2ea9a14610195578063b1e65f1f146101b1578063cede7287146101cd578063f2fde38b146101eb576100b4565b806310f66e5c146100b957806325d112a9146100d7578063340754ed146100f557806363be09a714610113578063715018a614610131578063893d20e81461013b575b600080fd5b6100c1610207565b6040516100ce9190610827565b60405180910390f35b6100df61022d565b6040516100ec919061085b565b60405180910390f35b6100fd6102c5565b60405161010a919061085b565b60405180910390f35b61011b6102cb565b6040516101289190610897565b60405180910390f35b6101396102f1565b005b610143610305565b60405161015091906108d3565b60405180910390f35b610161610314565b60405161016e91906108d3565b60405180910390f35b61017f61033d565b60405161018c919061090f565b60405180910390f35b6101af60048036038101906101aa9190610996565b610363565b005b6101cb60048036038101906101c69190610b43565b610516565b005b6101d56105a9565b6040516101e29190610bc0565b60405180910390f35b61020560048036038101906102009190610bdb565b6105cf565b005b600160009054906101000a900473ffffffffffffffffffffffffffffffffffffffff1681565b6000600160009054906101000a900473ffffffffffffffffffffffffffffffffffffffff1673ffffffffffffffffffffffffffffffffffffffff16638c0e83496040518163ffffffff1660e01b8152600401602060405180830381865afa15801561029c573d6000803e3d6000fd5b505050506040513d601f19601f820116820180604052508101906102c09190610c1d565b905090565b60055481565b600260009054906101000a900473ffffffffffffffffffffffffffffffffffffffff1681565b6102f9610655565b61030360006106dc565b565b600061030f610314565b905090565b60008060009054906101000a900473ffffffffffffffffffffffffffffffffffffffff16905090565b600360009054906101000a900473ffffffffffffffffffffffffffffffffffffffff1681565b600260009054906101000a900473ffffffffffffffffffffffffffffffffffffffff1673ffffffffffffffffffffffffffffffffffffffff166340c10f1985856040518363ffffffff1660e01b81526004016103c0929190610c4a565b600060405180830381600087803b1580156103da57600080fd5b505af11580156103ee573d6000803e3d6000fd5b50505050600360009054906101000a900473ffffffffffffffffffffffffffffffffffffffff1673ffffffffffffffffffffffffffffffffffffffff166340c10f1985846040518363ffffffff1660e01b815260040161044f929190610c4a565b600060405180830381600087803b15801561046957600080fd5b505af115801561047d573d6000803e3d6000fd5b50505050600460009054906101000a900473ffffffffffffffffffffffffffffffffffffffff1673ffffffffffffffffffffffffffffffffffffffff166340c10f1985836040518363ffffffff1660e01b81526004016104de929190610c4a565b600060405180830381600087803b1580156104f857600080fd5b505af115801561050c573d6000803e3d6000fd5b5050505050505050565b600160009054906101000a900473ffffffffffffffffffffffffffffffffffffffff1673ffffffffffffffffffffffffffffffffffffffff1663d204c45e83836040518363ffffffff1660e01b8152600401610573929190610cf2565b600060405180830381600087803b15801561058d57600080fd5b505af11580156105a1573d6000803e3d6000fd5b505050505050565b600460009054906101000a900473ffffffffffffffffffffffffffffffffffffffff1681565b6105d7610655565b600073ffffffffffffffffffffffffffffffffffffffff168173ffffffffffffffffffffffffffffffffffffffff16036106495760006040517f1e4fbdf700000000000000000000000000000000000000000000000000000000815260040161064091906108d3565b60405180910390fd5b610652816106dc565b50565b61065d6107a0565b73ffffffffffffffffffffffffffffffffffffffff1661067b610314565b73ffffffffffffffffffffffffffffffffffffffff16146106da5761069e6107a0565b6040517f118cdaa70000000000000000000000000000000000000000000000000000000081526004016106d191906108d3565b60405180910390fd5b565b60008060009054906101000a900473ffffffffffffffffffffffffffffffffffffffff169050816000806101000a81548173ffffffffffffffffffffffffffffffffffffffff021916908373ffffffffffffffffffffffffffffffffffffffff1602179055508173ffffffffffffffffffffffffffffffffffffffff168173ffffffffffffffffffffffffffffffffffffffff167f8be0079c531659141344cd1fd0a4f28419497f9722a3daafe3b4186f6b6457e060405160405180910390a35050565b600033905090565b600073ffffffffffffffffffffffffffffffffffffffff82169050919050565b6000819050919050565b60006107ed6107e86107e3846107a8565b6107c8565b6107a8565b9050919050565b60006107ff826107d2565b9050919050565b6000610811826107f4565b9050919050565b61082181610806565b82525050565b600060208201905061083c6000830184610818565b92915050565b6000819050919050565b61085581610842565b82525050565b6000602082019050610870600083018461084c565b92915050565b6000610881826107f4565b9050919050565b61089181610876565b82525050565b60006020820190506108ac6000830184610888565b92915050565b60006108bd826107a8565b9050919050565b6108cd816108b2565b82525050565b60006020820190506108e860008301846108c4565b92915050565b60006108f9826107f4565b9050919050565b610909816108ee565b82525050565b60006020820190506109246000830184610900565b92915050565b6000604051905090565b600080fd5b600080fd5b610947816108b2565b811461095257600080fd5b50565b6000813590506109648161093e565b92915050565b61097381610842565b811461097e57600080fd5b50565b6000813590506109908161096a565b92915050565b600080600080608085870312156109b0576109af610934565b5b60006109be87828801610955565b94505060206109cf87828801610981565b93505060406109e087828801610981565b92505060606109f187828801610981565b91505092959194509250565b600080fd5b600080fd5b6000601f19601f8301169050919050565b7f4e487b7100000000000000000000000000000000000000000000000000000000600052604160045260246000fd5b610a5082610a07565b810181811067ffffffffffffffff82111715610a6f57610a6e610a18565b5b80604052505050565b6000610a8261092a565b9050610a8e8282610a47565b919050565b600067ffffffffffffffff821115610aae57610aad610a18565b5b610ab782610a07565b9050602081019050919050565b82818337600083830152505050565b6000610ae6610ae184610a93565b610a78565b905082815260208101848484011115610b0257610b01610a02565b5b610b0d848285610ac4565b509392505050565b600082601f830112610b2a57610b296109fd565b5b8135610b3a848260208601610ad3565b91505092915050565b60008060408385031215610b5a57610b59610934565b5b6000610b6885828601610955565b925050602083013567ffffffffffffffff811115610b8957610b88610939565b5b610b9585828601610b15565b9150509250929050565b6000610baa826107f4565b9050919050565b610bba81610b9f565b82525050565b6000602082019050610bd56000830184610bb1565b92915050565b600060208284031215610bf157610bf0610934565b5b6000610bff84828501610955565b91505092915050565b600081519050610c178161096a565b92915050565b600060208284031215610c3357610c32610934565b5b6000610c4184828501610c08565b91505092915050565b6000604082019050610c5f60008301856108c4565b610c6c602083018461084c565b9392505050565b600081519050919050565b600082825260208201905092915050565b60005b83811015610cad578082015181840152602081019050610c92565b60008484015250505050565b6000610cc482610c73565b610cce8185610c7e565b9350610cde818560208601610c8f565b610ce781610a07565b840191505092915050565b6000604082019050610d0760008301856108c4565b8181036020830152610d198184610cb9565b9050939250505056fea2646970667358221220a1c869e2e311a78179cf4faf58c5a266d25dd77406d8af61e943e53c6941c03464736f6c63430008140033",
  "linkReferences": {},
  "deployedLinkReferences": {}
}