{
  "_format": "hh-sol-artifact-1",
  "contractName": "Operator",
  "sourceName": "contracts/Operator.sol",
  "abi": [
    {
      "inputs": [
        {
          "internalType": "address",
          "name": "initialOwner",
          "type": "address"
        },
        {
          "internalType": "address",
          "name": "_cosmicCowboys",
          "type": "address"
        },
        {
          "internalType": "address",
          "name": "_goldenCorn",
          "type": "address"
        },
        {
          "internalType": "address",
          "name": "_spaceSlop",
          "type": "address"
        },
        {
          "internalType": "address",
          "name": "_jupiterJunk",
          "type": "address"
        }
      ],
      "stateMutability": "nonpayable",
      "type": "constructor"
    },
    {
      "inputs": [
        {
          "internalType": "address",
          "name": "owner",
          "type": "address"
        }
      ],
      "name": "OwnableInvalidOwner",
      "type": "error"
    },
    {
      "inputs": [
        {
          "internalType": "address",
          "name": "account",
          "type": "address"
        }
      ],
      "name": "OwnableUnauthorizedAccount",
      "type": "error"
    },
    {
      "anonymous": false,
      "inputs": [
        {
          "indexed": true,
          "internalType": "address",
          "name": "previousOwner",
          "type": "address"
        },
        {
          "indexed": true,
          "internalType": "address",
          "name": "newOwner",
          "type": "address"
        }
      ],
      "name": "OwnershipTransferred",
      "type": "event"
    },
    {
      "inputs": [],
      "name": "cosmicCowboys",
      "outputs": [
        {
          "internalType": "contract CosmicCowboys",
          "name": "",
          "type": "address"
        }
      ],
      "stateMutability": "view",
      "type": "function"
    },
    {
      "inputs": [
        {
          "internalType": "address",
          "name": "to",
          "type": "address"
        },
        {
          "internalType": "string",
          "name": "uri",
          "type": "string"
        }
      ],
      "name": "createNPC",
      "outputs": [],
      "stateMutability": "nonpayable",
      "type": "function"
    },
    {
      "inputs": [
        {
          "internalType": "address",
          "name": "to",
          "type": "address"
        },
        {
          "internalType": "uint256",
          "name": "amount",
          "type": "uint256"
        }
      ],
      "name": "feedNPC",
      "outputs": [],
      "stateMutability": "nonpayable",
      "type": "function"
    },
    {
      "inputs": [
        {
          "internalType": "address",
          "name": "to",
          "type": "address"
        },
        {
          "internalType": "uint256",
          "name": "amount",
          "type": "uint256"
        }
      ],
      "name": "fundNPC",
      "outputs": [],
      "stateMutability": "nonpayable",
      "type": "function"
    },
    {
      "inputs": [],
      "name": "getLatestTokenId",
      "outputs": [
        {
          "internalType": "uint256",
          "name": "",
          "type": "uint256"
        }
      ],
      "stateMutability": "view",
      "type": "function"
    },
    {
      "inputs": [
        {
          "internalType": "uint256",
          "name": "tokenId",
          "type": "uint256"
        }
      ],
      "name": "getNPCStats",
      "outputs": [
        {
          "internalType": "uint8",
          "name": "",
          "type": "uint8"
        },
        {
          "internalType": "string",
          "name": "",
          "type": "string"
        }
      ],
      "stateMutability": "view",
      "type": "function"
    },
    {
      "inputs": [],
      "name": "getOwner",
      "outputs": [
        {
          "internalType": "address",
          "name": "",
          "type": "address"
        }
      ],
      "stateMutability": "view",
      "type": "function"
    },
    {
      "inputs": [
        {
          "internalType": "uint256",
          "name": "tokenId",
          "type": "uint256"
        }
      ],
      "name": "goToBar",
      "outputs": [],
      "stateMutability": "nonpayable",
      "type": "function"
    },
    {
      "inputs": [
        {
          "internalType": "uint256",
          "name": "tokenId",
          "type": "uint256"
        }
      ],
      "name": "goToHome",
      "outputs": [],
      "stateMutability": "nonpayable",
      "type": "function"
    },
    {
      "inputs": [
        {
          "internalType": "uint256",
          "name": "tokenId",
          "type": "uint256"
        }
      ],
      "name": "goToSupplyDepot",
      "outputs": [],
      "stateMutability": "nonpayable",
      "type": "function"
    },
    {
      "inputs": [],
      "name": "goldenCorn",
      "outputs": [
        {
          "internalType": "contract GoldenCorn",
          "name": "",
          "type": "address"
        }
      ],
      "stateMutability": "view",
      "type": "function"
    },
    {
      "inputs": [],
      "name": "jupiterJunk",
      "outputs": [
        {
          "internalType": "contract JupiterJunk",
          "name": "",
          "type": "address"
        }
      ],
      "stateMutability": "view",
      "type": "function"
    },
    {
      "inputs": [],
      "name": "newTokenId",
      "outputs": [
        {
          "internalType": "uint256",
          "name": "",
          "type": "uint256"
        }
      ],
      "stateMutability": "view",
      "type": "function"
    },
    {
      "inputs": [],
      "name": "owner",
      "outputs": [
        {
          "internalType": "address",
          "name": "",
          "type": "address"
        }
      ],
      "stateMutability": "view",
      "type": "function"
    },
    {
      "inputs": [],
      "name": "renounceOwnership",
      "outputs": [],
      "stateMutability": "nonpayable",
      "type": "function"
    },
    {
      "inputs": [],
      "name": "spaceSlop",
      "outputs": [
        {
          "internalType": "contract SpaceSlop",
          "name": "",
          "type": "address"
        }
      ],
      "stateMutability": "view",
      "type": "function"
    },
    {
      "inputs": [
        {
          "internalType": "address",
          "name": "to",
          "type": "address"
        },
        {
          "internalType": "uint256",
          "name": "amount",
          "type": "uint256"
        }
      ],
      "name": "supplyNPC",
      "outputs": [],
      "stateMutability": "nonpayable",
      "type": "function"
    },
    {
      "inputs": [
        {
          "internalType": "address",
          "name": "newOwner",
          "type": "address"
        }
      ],
      "name": "transferOwnership",
      "outputs": [],
      "stateMutability": "nonpayable",
      "type": "function"
    }
  ],
  "bytecode": "0x60806040523480156200001157600080fd5b5060405162001872380380620018728339818101604052810190620000379190620002fc565b84600073ffffffffffffffffffffffffffffffffffffffff168173ffffffffffffffffffffffffffffffffffffffff1603620000ad5760006040517f1e4fbdf7000000000000000000000000000000000000000000000000000000008152600401620000a4919062000395565b60405180910390fd5b620000be81620001ce60201b60201c565b5083600160006101000a81548173ffffffffffffffffffffffffffffffffffffffff021916908373ffffffffffffffffffffffffffffffffffffffff16021790555082600260006101000a81548173ffffffffffffffffffffffffffffffffffffffff021916908373ffffffffffffffffffffffffffffffffffffffff16021790555081600360006101000a81548173ffffffffffffffffffffffffffffffffffffffff021916908373ffffffffffffffffffffffffffffffffffffffff16021790555080600460006101000a81548173ffffffffffffffffffffffffffffffffffffffff021916908373ffffffffffffffffffffffffffffffffffffffff1602179055505050505050620003b2565b60008060009054906101000a900473ffffffffffffffffffffffffffffffffffffffff169050816000806101000a81548173ffffffffffffffffffffffffffffffffffffffff021916908373ffffffffffffffffffffffffffffffffffffffff1602179055508173ffffffffffffffffffffffffffffffffffffffff168173ffffffffffffffffffffffffffffffffffffffff167f8be0079c531659141344cd1fd0a4f28419497f9722a3daafe3b4186f6b6457e060405160405180910390a35050565b600080fd5b600073ffffffffffffffffffffffffffffffffffffffff82169050919050565b6000620002c48262000297565b9050919050565b620002d681620002b7565b8114620002e257600080fd5b50565b600081519050620002f681620002cb565b92915050565b600080600080600060a086880312156200031b576200031a62000292565b5b60006200032b88828901620002e5565b95505060206200033e88828901620002e5565b94505060406200035188828901620002e5565b93505060606200036488828901620002e5565b92505060806200037788828901620002e5565b9150509295509295909350565b6200038f81620002b7565b82525050565b6000602082019050620003ac600083018462000384565b92915050565b6114b080620003c26000396000f3fe608060405234801561001057600080fd5b50600436106101165760003560e01c8063715018a6116100a2578063999fe4e711610071578063999fe4e714610298578063b1e65f1f146102b4578063bbbc8507146102d0578063cede7287146102ec578063f2fde38b1461030a57610116565b8063715018a614610234578063893d20e81461023e5780638da5cb5b1461025c5780639384fbc11461027a57610116565b806325d112a9116100e957806325d112a9146101a2578063340754ed146101c0578063463d6342146101de578063537dc21c146101fa57806363be09a71461021657610116565b8063025e851e1461011b5780630f99ca6d1461013757806310f66e5c146101685780632022391e14610186575b600080fd5b61013560048036038101906101309190610db7565b610326565b005b610151600480360381019061014c9190610df7565b6103b9565b60405161015f929190610ed0565b60405180910390f35b61017061050f565b60405161017d9190610f5f565b60405180910390f35b6101a0600480360381019061019b9190610df7565b610535565b005b6101aa6105c5565b6040516101b79190610f89565b60405180910390f35b6101c861065d565b6040516101d59190610f89565b60405180910390f35b6101f860048036038101906101f39190610db7565b610663565b005b610214600480360381019061020f9190610df7565b6106f6565b005b61021e610786565b60405161022b9190610fc5565b60405180910390f35b61023c6107ac565b005b6102466107c0565b6040516102539190610fef565b60405180910390f35b6102646107cf565b6040516102719190610fef565b60405180910390f35b6102826107f8565b60405161028f919061102b565b60405180910390f35b6102b260048036038101906102ad9190610df7565b61081e565b005b6102ce60048036038101906102c9919061117b565b6109ea565b005b6102ea60048036038101906102e59190610db7565b610a7d565b005b6102f4610b10565b60405161030191906111f8565b60405180910390f35b610324600480360381019061031f9190611213565b610b36565b005b600360009054906101000a900473ffffffffffffffffffffffffffffffffffffffff1673ffffffffffffffffffffffffffffffffffffffff166340c10f1983836040518363ffffffff1660e01b8152600401610383929190611240565b600060405180830381600087803b15801561039d57600080fd5b505af11580156103b1573d6000803e3d6000fd5b505050505050565b600060606000600160009054906101000a900473ffffffffffffffffffffffffffffffffffffffff1673ffffffffffffffffffffffffffffffffffffffff16633fc70f2c856040518263ffffffff1660e01b815260040161041a9190610f89565b602060405180830381865afa158015610437573d6000803e3d6000fd5b505050506040513d601f19601f8201168201806040525081019061045b9190611295565b90506000600160009054906101000a900473ffffffffffffffffffffffffffffffffffffffff1673ffffffffffffffffffffffffffffffffffffffff166323bb1835866040518263ffffffff1660e01b81526004016104ba9190610f89565b600060405180830381865afa1580156104d7573d6000803e3d6000fd5b505050506040513d6000823e3d601f19601f820116820180604052508101906105009190611332565b90508181935093505050915091565b600160009054906101000a900473ffffffffffffffffffffffffffffffffffffffff1681565b600160009054906101000a900473ffffffffffffffffffffffffffffffffffffffff1673ffffffffffffffffffffffffffffffffffffffff16632022391e826040518263ffffffff1660e01b81526004016105909190610f89565b600060405180830381600087803b1580156105aa57600080fd5b505af11580156105be573d6000803e3d6000fd5b5050505050565b6000600160009054906101000a900473ffffffffffffffffffffffffffffffffffffffff1673ffffffffffffffffffffffffffffffffffffffff16638c0e83496040518163ffffffff1660e01b8152600401602060405180830381865afa158015610634573d6000803e3d6000fd5b505050506040513d601f19601f820116820180604052508101906106589190611390565b905090565b60055481565b600460009054906101000a900473ffffffffffffffffffffffffffffffffffffffff1673ffffffffffffffffffffffffffffffffffffffff166340c10f1983836040518363ffffffff1660e01b81526004016106c0929190611240565b600060405180830381600087803b1580156106da57600080fd5b505af11580156106ee573d6000803e3d6000fd5b505050505050565b600160009054906101000a900473ffffffffffffffffffffffffffffffffffffffff1673ffffffffffffffffffffffffffffffffffffffff1663537dc21c826040518263ffffffff1660e01b81526004016107519190610f89565b600060405180830381600087803b15801561076b57600080fd5b505af115801561077f573d6000803e3d6000fd5b5050505050565b600260009054906101000a900473ffffffffffffffffffffffffffffffffffffffff1681565b6107b4610bbc565b6107be6000610c43565b565b60006107ca6107cf565b905090565b60008060009054906101000a900473ffffffffffffffffffffffffffffffffffffffff16905090565b600360009054906101000a900473ffffffffffffffffffffffffffffffffffffffff1681565b600160009054906101000a900473ffffffffffffffffffffffffffffffffffffffff1673ffffffffffffffffffffffffffffffffffffffff1663999fe4e7826040518263ffffffff1660e01b81526004016108799190610f89565b600060405180830381600087803b15801561089357600080fd5b505af11580156108a7573d6000803e3d6000fd5b5050505060006002600160009054906101000a900473ffffffffffffffffffffffffffffffffffffffff1673ffffffffffffffffffffffffffffffffffffffff16633fc70f2c846040518263ffffffff1660e01b815260040161090a9190610f89565b602060405180830381865afa158015610927573d6000803e3d6000fd5b505050506040513d601f19601f8201168201806040525081019061094b9190611295565b61095591906113ec565b9050600160009054906101000a900473ffffffffffffffffffffffffffffffffffffffff1673ffffffffffffffffffffffffffffffffffffffff16639132548083836040518363ffffffff1660e01b81526004016109b4929190611421565b600060405180830381600087803b1580156109ce57600080fd5b505af11580156109e2573d6000803e3d6000fd5b505050505050565b600160009054906101000a900473ffffffffffffffffffffffffffffffffffffffff1673ffffffffffffffffffffffffffffffffffffffff1663d204c45e83836040518363ffffffff1660e01b8152600401610a4792919061144a565b600060405180830381600087803b158015610a6157600080fd5b505af1158015610a75573d6000803e3d6000fd5b505050505050565b600260009054906101000a900473ffffffffffffffffffffffffffffffffffffffff1673ffffffffffffffffffffffffffffffffffffffff166340c10f1983836040518363ffffffff1660e01b8152600401610ada929190611240565b600060405180830381600087803b158015610af457600080fd5b505af1158015610b08573d6000803e3d6000fd5b505050505050565b600460009054906101000a900473ffffffffffffffffffffffffffffffffffffffff1681565b610b3e610bbc565b600073ffffffffffffffffffffffffffffffffffffffff168173ffffffffffffffffffffffffffffffffffffffff1603610bb05760006040517f1e4fbdf7000000000000000000000000000000000000000000000000000000008152600401610ba79190610fef565b60405180910390fd5b610bb981610c43565b50565b610bc4610d07565b73ffffffffffffffffffffffffffffffffffffffff16610be26107cf565b73ffffffffffffffffffffffffffffffffffffffff1614610c4157610c05610d07565b6040517f118cdaa7000000000000000000000000000000000000000000000000000000008152600401610c389190610fef565b60405180910390fd5b565b60008060009054906101000a900473ffffffffffffffffffffffffffffffffffffffff169050816000806101000a81548173ffffffffffffffffffffffffffffffffffffffff021916908373ffffffffffffffffffffffffffffffffffffffff1602179055508173ffffffffffffffffffffffffffffffffffffffff168173ffffffffffffffffffffffffffffffffffffffff167f8be0079c531659141344cd1fd0a4f28419497f9722a3daafe3b4186f6b6457e060405160405180910390a35050565b600033905090565b6000604051905090565b600080fd5b600080fd5b600073ffffffffffffffffffffffffffffffffffffffff82169050919050565b6000610d4e82610d23565b9050919050565b610d5e81610d43565b8114610d6957600080fd5b50565b600081359050610d7b81610d55565b92915050565b6000819050919050565b610d9481610d81565b8114610d9f57600080fd5b50565b600081359050610db181610d8b565b92915050565b60008060408385031215610dce57610dcd610d19565b5b6000610ddc85828601610d6c565b9250506020610ded85828601610da2565b9150509250929050565b600060208284031215610e0d57610e0c610d19565b5b6000610e1b84828501610da2565b91505092915050565b600060ff82169050919050565b610e3a81610e24565b82525050565b600081519050919050565b600082825260208201905092915050565b60005b83811015610e7a578082015181840152602081019050610e5f565b60008484015250505050565b6000601f19601f8301169050919050565b6000610ea282610e40565b610eac8185610e4b565b9350610ebc818560208601610e5c565b610ec581610e86565b840191505092915050565b6000604082019050610ee56000830185610e31565b8181036020830152610ef78184610e97565b90509392505050565b6000819050919050565b6000610f25610f20610f1b84610d23565b610f00565b610d23565b9050919050565b6000610f3782610f0a565b9050919050565b6000610f4982610f2c565b9050919050565b610f5981610f3e565b82525050565b6000602082019050610f746000830184610f50565b92915050565b610f8381610d81565b82525050565b6000602082019050610f9e6000830184610f7a565b92915050565b6000610faf82610f2c565b9050919050565b610fbf81610fa4565b82525050565b6000602082019050610fda6000830184610fb6565b92915050565b610fe981610d43565b82525050565b60006020820190506110046000830184610fe0565b92915050565b600061101582610f2c565b9050919050565b6110258161100a565b82525050565b6000602082019050611040600083018461101c565b92915050565b600080fd5b600080fd5b7f4e487b7100000000000000000000000000000000000000000000000000000000600052604160045260246000fd5b61108882610e86565b810181811067ffffffffffffffff821117156110a7576110a6611050565b5b80604052505050565b60006110ba610d0f565b90506110c6828261107f565b919050565b600067ffffffffffffffff8211156110e6576110e5611050565b5b6110ef82610e86565b9050602081019050919050565b82818337600083830152505050565b600061111e611119846110cb565b6110b0565b90508281526020810184848401111561113a5761113961104b565b5b6111458482856110fc565b509392505050565b600082601f83011261116257611161611046565b5b813561117284826020860161110b565b91505092915050565b6000806040838503121561119257611191610d19565b5b60006111a085828601610d6c565b925050602083013567ffffffffffffffff8111156111c1576111c0610d1e565b5b6111cd8582860161114d565b9150509250929050565b60006111e282610f2c565b9050919050565b6111f2816111d7565b82525050565b600060208201905061120d60008301846111e9565b92915050565b60006020828403121561122957611228610d19565b5b600061123784828501610d6c565b91505092915050565b60006040820190506112556000830185610fe0565b6112626020830184610f7a565b9392505050565b61127281610e24565b811461127d57600080fd5b50565b60008151905061128f81611269565b92915050565b6000602082840312156112ab576112aa610d19565b5b60006112b984828501611280565b91505092915050565b60006112d56112d0846110cb565b6110b0565b9050828152602081018484840111156112f1576112f061104b565b5b6112fc848285610e5c565b509392505050565b600082601f83011261131957611318611046565b5b81516113298482602086016112c2565b91505092915050565b60006020828403121561134857611347610d19565b5b600082015167ffffffffffffffff81111561136657611365610d1e565b5b61137284828501611304565b91505092915050565b60008151905061138a81610d8b565b92915050565b6000602082840312156113a6576113a5610d19565b5b60006113b48482850161137b565b91505092915050565b7f4e487b7100000000000000000000000000000000000000000000000000000000600052601160045260246000fd5b60006113f782610e24565b915061140283610e24565b9250828201905060ff81111561141b5761141a6113bd565b5b92915050565b60006040820190506114366000830185610f7a565b6114436020830184610e31565b9392505050565b600060408201905061145f6000830185610fe0565b81810360208301526114718184610e97565b9050939250505056fea264697066735822122009d31078a446c83346451391a8b4cd175c168036133cc08164250a5077a47ff464736f6c63430008140033",
  "linkReferences": {},
  "deployedLinkReferences": {}
}