{
  "_format": "hh-sol-artifact-1",
  "contractName": "Operator",
  "sourceName": "contracts/Operator.sol",
  "abi": [
    {
      "inputs": [
        {
          "internalType": "address",
          "name": "initialOwner",
          "type": "address"
        },
        {
          "internalType": "address",
          "name": "_cosmicCowboys",
          "type": "address"
        },
        {
          "internalType": "address",
          "name": "_goldenCorn",
          "type": "address"
        },
        {
          "internalType": "address",
          "name": "_spaceSlop",
          "type": "address"
        },
        {
          "internalType": "address",
          "name": "_jupiterJunk",
          "type": "address"
        }
      ],
      "stateMutability": "nonpayable",
      "type": "constructor"
    },
    {
      "inputs": [
        {
          "internalType": "address",
          "name": "owner",
          "type": "address"
        }
      ],
      "name": "OwnableInvalidOwner",
      "type": "error"
    },
    {
      "inputs": [
        {
          "internalType": "address",
          "name": "account",
          "type": "address"
        }
      ],
      "name": "OwnableUnauthorizedAccount",
      "type": "error"
    },
    {
      "anonymous": false,
      "inputs": [
        {
          "indexed": true,
          "internalType": "address",
          "name": "previousOwner",
          "type": "address"
        },
        {
          "indexed": true,
          "internalType": "address",
          "name": "newOwner",
          "type": "address"
        }
      ],
      "name": "OwnershipTransferred",
      "type": "event"
    },
    {
      "inputs": [],
      "name": "cosmicCowboys",
      "outputs": [
        {
          "internalType": "contract CosmicCowboys",
          "name": "",
          "type": "address"
        }
      ],
      "stateMutability": "view",
      "type": "function"
    },
    {
      "inputs": [
        {
          "internalType": "address",
          "name": "to",
          "type": "address"
        },
        {
          "internalType": "string",
          "name": "uri",
          "type": "string"
        }
      ],
      "name": "createNPC",
      "outputs": [],
      "stateMutability": "nonpayable",
      "type": "function"
    },
    {
      "inputs": [
        {
          "internalType": "address",
          "name": "to",
          "type": "address"
        },
        {
          "internalType": "uint256",
          "name": "currencyAmount",
          "type": "uint256"
        },
        {
          "internalType": "uint256",
          "name": "foodAmount",
          "type": "uint256"
        },
        {
          "internalType": "uint256",
          "name": "suppliesAmount",
          "type": "uint256"
        }
      ],
      "name": "equipNPC",
      "outputs": [],
      "stateMutability": "nonpayable",
      "type": "function"
    },
    {
      "inputs": [],
      "name": "getLatestTokenId",
      "outputs": [
        {
          "internalType": "uint256",
          "name": "",
          "type": "uint256"
        }
      ],
      "stateMutability": "view",
      "type": "function"
    },
    {
      "inputs": [
        {
          "internalType": "uint256",
          "name": "tokenId",
          "type": "uint256"
        }
      ],
      "name": "getNPCStats",
      "outputs": [
        {
          "internalType": "uint8",
          "name": "",
          "type": "uint8"
        },
        {
          "internalType": "string",
          "name": "",
          "type": "string"
        }
      ],
      "stateMutability": "view",
      "type": "function"
    },
    {
      "inputs": [],
      "name": "getOwner",
      "outputs": [
        {
          "internalType": "address",
          "name": "",
          "type": "address"
        }
      ],
      "stateMutability": "view",
      "type": "function"
    },
    {
      "inputs": [],
      "name": "goldenCorn",
      "outputs": [
        {
          "internalType": "contract GoldenCorn",
          "name": "",
          "type": "address"
        }
      ],
      "stateMutability": "view",
      "type": "function"
    },
    {
      "inputs": [],
      "name": "jupiterJunk",
      "outputs": [
        {
          "internalType": "contract JupiterJunk",
          "name": "",
          "type": "address"
        }
      ],
      "stateMutability": "view",
      "type": "function"
    },
    {
      "inputs": [],
      "name": "newTokenId",
      "outputs": [
        {
          "internalType": "uint256",
          "name": "",
          "type": "uint256"
        }
      ],
      "stateMutability": "view",
      "type": "function"
    },
    {
      "inputs": [],
      "name": "owner",
      "outputs": [
        {
          "internalType": "address",
          "name": "",
          "type": "address"
        }
      ],
      "stateMutability": "view",
      "type": "function"
    },
    {
      "inputs": [],
      "name": "renounceOwnership",
      "outputs": [],
      "stateMutability": "nonpayable",
      "type": "function"
    },
    {
      "inputs": [],
      "name": "spaceSlop",
      "outputs": [
        {
          "internalType": "contract SpaceSlop",
          "name": "",
          "type": "address"
        }
      ],
      "stateMutability": "view",
      "type": "function"
    },
    {
      "inputs": [
        {
          "internalType": "address",
          "name": "newOwner",
          "type": "address"
        }
      ],
      "name": "transferOwnership",
      "outputs": [],
      "stateMutability": "nonpayable",
      "type": "function"
    }
  ],
  "bytecode": "0x60806040523480156200001157600080fd5b5060405162001447380380620014478339818101604052810190620000379190620002fc565b84600073ffffffffffffffffffffffffffffffffffffffff168173ffffffffffffffffffffffffffffffffffffffff1603620000ad5760006040517f1e4fbdf7000000000000000000000000000000000000000000000000000000008152600401620000a4919062000395565b60405180910390fd5b620000be81620001ce60201b60201c565b5083600160006101000a81548173ffffffffffffffffffffffffffffffffffffffff021916908373ffffffffffffffffffffffffffffffffffffffff16021790555082600260006101000a81548173ffffffffffffffffffffffffffffffffffffffff021916908373ffffffffffffffffffffffffffffffffffffffff16021790555081600360006101000a81548173ffffffffffffffffffffffffffffffffffffffff021916908373ffffffffffffffffffffffffffffffffffffffff16021790555080600460006101000a81548173ffffffffffffffffffffffffffffffffffffffff021916908373ffffffffffffffffffffffffffffffffffffffff1602179055505050505050620003b2565b60008060009054906101000a900473ffffffffffffffffffffffffffffffffffffffff169050816000806101000a81548173ffffffffffffffffffffffffffffffffffffffff021916908373ffffffffffffffffffffffffffffffffffffffff1602179055508173ffffffffffffffffffffffffffffffffffffffff168173ffffffffffffffffffffffffffffffffffffffff167f8be0079c531659141344cd1fd0a4f28419497f9722a3daafe3b4186f6b6457e060405160405180910390a35050565b600080fd5b600073ffffffffffffffffffffffffffffffffffffffff82169050919050565b6000620002c48262000297565b9050919050565b620002d681620002b7565b8114620002e257600080fd5b50565b600081519050620002f681620002cb565b92915050565b600080600080600060a086880312156200031b576200031a62000292565b5b60006200032b88828901620002e5565b95505060206200033e88828901620002e5565b94505060406200035188828901620002e5565b93505060606200036488828901620002e5565b92505060806200037788828901620002e5565b9150509295509295909350565b6200038f81620002b7565b82525050565b6000602082019050620003ac600083018462000384565b92915050565b61108580620003c26000396000f3fe608060405234801561001057600080fd5b50600436106100cf5760003560e01c8063893d20e81161008c578063a5c2ea9a11610066578063a5c2ea9a146101e1578063b1e65f1f146101fd578063cede728714610219578063f2fde38b14610237576100cf565b8063893d20e8146101875780638da5cb5b146101a55780639384fbc1146101c3576100cf565b80630f99ca6d146100d457806310f66e5c1461010557806325d112a914610123578063340754ed1461014157806363be09a71461015f578063715018a61461017d575b600080fd5b6100ee60048036038101906100e99190610994565b610253565b6040516100fc929190610a6d565b60405180910390f35b61010d6103a9565b60405161011a9190610b1c565b60405180910390f35b61012b6103cf565b6040516101389190610b46565b60405180910390f35b610149610467565b6040516101569190610b46565b60405180910390f35b61016761046d565b6040516101749190610b82565b60405180910390f35b610185610493565b005b61018f6104a7565b60405161019c9190610bbe565b60405180910390f35b6101ad6104b6565b6040516101ba9190610bbe565b60405180910390f35b6101cb6104df565b6040516101d89190610bfa565b60405180910390f35b6101fb60048036038101906101f69190610c41565b610505565b005b61021760048036038101906102129190610ddd565b6106b8565b005b61022161074b565b60405161022e9190610e5a565b60405180910390f35b610251600480360381019061024c9190610e75565b610771565b005b600060606000600160009054906101000a900473ffffffffffffffffffffffffffffffffffffffff1673ffffffffffffffffffffffffffffffffffffffff16633fc70f2c856040518263ffffffff1660e01b81526004016102b49190610b46565b602060405180830381865afa1580156102d1573d6000803e3d6000fd5b505050506040513d601f19601f820116820180604052508101906102f59190610ece565b90506000600160009054906101000a900473ffffffffffffffffffffffffffffffffffffffff1673ffffffffffffffffffffffffffffffffffffffff166323bb1835866040518263ffffffff1660e01b81526004016103549190610b46565b600060405180830381865afa158015610371573d6000803e3d6000fd5b505050506040513d6000823e3d601f19601f8201168201806040525081019061039a9190610f6b565b90508181935093505050915091565b600160009054906101000a900473ffffffffffffffffffffffffffffffffffffffff1681565b6000600160009054906101000a900473ffffffffffffffffffffffffffffffffffffffff1673ffffffffffffffffffffffffffffffffffffffff16638c0e83496040518163ffffffff1660e01b8152600401602060405180830381865afa15801561043e573d6000803e3d6000fd5b505050506040513d601f19601f820116820180604052508101906104629190610fc9565b905090565b60055481565b600260009054906101000a900473ffffffffffffffffffffffffffffffffffffffff1681565b61049b6107f7565b6104a5600061087e565b565b60006104b16104b6565b905090565b60008060009054906101000a900473ffffffffffffffffffffffffffffffffffffffff16905090565b600360009054906101000a900473ffffffffffffffffffffffffffffffffffffffff1681565b600260009054906101000a900473ffffffffffffffffffffffffffffffffffffffff1673ffffffffffffffffffffffffffffffffffffffff166340c10f1985856040518363ffffffff1660e01b8152600401610562929190610ff6565b600060405180830381600087803b15801561057c57600080fd5b505af1158015610590573d6000803e3d6000fd5b50505050600360009054906101000a900473ffffffffffffffffffffffffffffffffffffffff1673ffffffffffffffffffffffffffffffffffffffff166340c10f1985846040518363ffffffff1660e01b81526004016105f1929190610ff6565b600060405180830381600087803b15801561060b57600080fd5b505af115801561061f573d6000803e3d6000fd5b50505050600460009054906101000a900473ffffffffffffffffffffffffffffffffffffffff1673ffffffffffffffffffffffffffffffffffffffff166340c10f1985836040518363ffffffff1660e01b8152600401610680929190610ff6565b600060405180830381600087803b15801561069a57600080fd5b505af11580156106ae573d6000803e3d6000fd5b5050505050505050565b600160009054906101000a900473ffffffffffffffffffffffffffffffffffffffff1673ffffffffffffffffffffffffffffffffffffffff1663d204c45e83836040518363ffffffff1660e01b815260040161071592919061101f565b600060405180830381600087803b15801561072f57600080fd5b505af1158015610743573d6000803e3d6000fd5b505050505050565b600460009054906101000a900473ffffffffffffffffffffffffffffffffffffffff1681565b6107796107f7565b600073ffffffffffffffffffffffffffffffffffffffff168173ffffffffffffffffffffffffffffffffffffffff16036107eb5760006040517f1e4fbdf70000000000000000000000000000000000000000000000000000000081526004016107e29190610bbe565b60405180910390fd5b6107f48161087e565b50565b6107ff610942565b73ffffffffffffffffffffffffffffffffffffffff1661081d6104b6565b73ffffffffffffffffffffffffffffffffffffffff161461087c57610840610942565b6040517f118cdaa70000000000000000000000000000000000000000000000000000000081526004016108739190610bbe565b60405180910390fd5b565b60008060009054906101000a900473ffffffffffffffffffffffffffffffffffffffff169050816000806101000a81548173ffffffffffffffffffffffffffffffffffffffff021916908373ffffffffffffffffffffffffffffffffffffffff1602179055508173ffffffffffffffffffffffffffffffffffffffff168173ffffffffffffffffffffffffffffffffffffffff167f8be0079c531659141344cd1fd0a4f28419497f9722a3daafe3b4186f6b6457e060405160405180910390a35050565b600033905090565b6000604051905090565b600080fd5b600080fd5b6000819050919050565b6109718161095e565b811461097c57600080fd5b50565b60008135905061098e81610968565b92915050565b6000602082840312156109aa576109a9610954565b5b60006109b88482850161097f565b91505092915050565b600060ff82169050919050565b6109d7816109c1565b82525050565b600081519050919050565b600082825260208201905092915050565b60005b83811015610a175780820151818401526020810190506109fc565b60008484015250505050565b6000601f19601f8301169050919050565b6000610a3f826109dd565b610a4981856109e8565b9350610a598185602086016109f9565b610a6281610a23565b840191505092915050565b6000604082019050610a8260008301856109ce565b8181036020830152610a948184610a34565b90509392505050565b600073ffffffffffffffffffffffffffffffffffffffff82169050919050565b6000819050919050565b6000610ae2610add610ad884610a9d565b610abd565b610a9d565b9050919050565b6000610af482610ac7565b9050919050565b6000610b0682610ae9565b9050919050565b610b1681610afb565b82525050565b6000602082019050610b316000830184610b0d565b92915050565b610b408161095e565b82525050565b6000602082019050610b5b6000830184610b37565b92915050565b6000610b6c82610ae9565b9050919050565b610b7c81610b61565b82525050565b6000602082019050610b976000830184610b73565b92915050565b6000610ba882610a9d565b9050919050565b610bb881610b9d565b82525050565b6000602082019050610bd36000830184610baf565b92915050565b6000610be482610ae9565b9050919050565b610bf481610bd9565b82525050565b6000602082019050610c0f6000830184610beb565b92915050565b610c1e81610b9d565b8114610c2957600080fd5b50565b600081359050610c3b81610c15565b92915050565b60008060008060808587031215610c5b57610c5a610954565b5b6000610c6987828801610c2c565b9450506020610c7a8782880161097f565b9350506040610c8b8782880161097f565b9250506060610c9c8782880161097f565b91505092959194509250565b600080fd5b600080fd5b7f4e487b7100000000000000000000000000000000000000000000000000000000600052604160045260246000fd5b610cea82610a23565b810181811067ffffffffffffffff82111715610d0957610d08610cb2565b5b80604052505050565b6000610d1c61094a565b9050610d288282610ce1565b919050565b600067ffffffffffffffff821115610d4857610d47610cb2565b5b610d5182610a23565b9050602081019050919050565b82818337600083830152505050565b6000610d80610d7b84610d2d565b610d12565b905082815260208101848484011115610d9c57610d9b610cad565b5b610da7848285610d5e565b509392505050565b600082601f830112610dc457610dc3610ca8565b5b8135610dd4848260208601610d6d565b91505092915050565b60008060408385031215610df457610df3610954565b5b6000610e0285828601610c2c565b925050602083013567ffffffffffffffff811115610e2357610e22610959565b5b610e2f85828601610daf565b9150509250929050565b6000610e4482610ae9565b9050919050565b610e5481610e39565b82525050565b6000602082019050610e6f6000830184610e4b565b92915050565b600060208284031215610e8b57610e8a610954565b5b6000610e9984828501610c2c565b91505092915050565b610eab816109c1565b8114610eb657600080fd5b50565b600081519050610ec881610ea2565b92915050565b600060208284031215610ee457610ee3610954565b5b6000610ef284828501610eb9565b91505092915050565b6000610f0e610f0984610d2d565b610d12565b905082815260208101848484011115610f2a57610f29610cad565b5b610f358482856109f9565b509392505050565b600082601f830112610f5257610f51610ca8565b5b8151610f62848260208601610efb565b91505092915050565b600060208284031215610f8157610f80610954565b5b600082015167ffffffffffffffff811115610f9f57610f9e610959565b5b610fab84828501610f3d565b91505092915050565b600081519050610fc381610968565b92915050565b600060208284031215610fdf57610fde610954565b5b6000610fed84828501610fb4565b91505092915050565b600060408201905061100b6000830185610baf565b6110186020830184610b37565b9392505050565b60006040820190506110346000830185610baf565b81810360208301526110468184610a34565b9050939250505056fea2646970667358221220d2f403c6fa1fc09f19cd657dbbe3e5f00521e0c124482a7c0dc2e19dd12ad05064736f6c63430008140033",
  "linkReferences": {},
  "deployedLinkReferences": {}
}