{
  "_format": "hh-sol-artifact-1",
  "contractName": "Operator",
  "sourceName": "contracts/Operator.sol",
  "abi": [
    {
      "inputs": [
        {
          "internalType": "address",
          "name": "initialOwner",
          "type": "address"
        },
        {
          "internalType": "address",
          "name": "_cosmicCowboys",
          "type": "address"
        },
        {
          "internalType": "address",
          "name": "_goldenCorn",
          "type": "address"
        },
        {
          "internalType": "address",
          "name": "_spaceSlop",
          "type": "address"
        },
        {
          "internalType": "address",
          "name": "_jupiterJunk",
          "type": "address"
        }
      ],
      "stateMutability": "nonpayable",
      "type": "constructor"
    },
    {
      "inputs": [
        {
          "internalType": "address",
          "name": "owner",
          "type": "address"
        }
      ],
      "name": "OwnableInvalidOwner",
      "type": "error"
    },
    {
      "inputs": [
        {
          "internalType": "address",
          "name": "account",
          "type": "address"
        }
      ],
      "name": "OwnableUnauthorizedAccount",
      "type": "error"
    },
    {
      "anonymous": false,
      "inputs": [
        {
          "indexed": true,
          "internalType": "address",
          "name": "previousOwner",
          "type": "address"
        },
        {
          "indexed": true,
          "internalType": "address",
          "name": "newOwner",
          "type": "address"
        }
      ],
      "name": "OwnershipTransferred",
      "type": "event"
    },
    {
      "inputs": [],
      "name": "cosmicCowboys",
      "outputs": [
        {
          "internalType": "contract CosmicCowboys",
          "name": "",
          "type": "address"
        }
      ],
      "stateMutability": "view",
      "type": "function"
    },
    {
      "inputs": [
        {
          "internalType": "address",
          "name": "to",
          "type": "address"
        },
        {
          "internalType": "string",
          "name": "uri",
          "type": "string"
        }
      ],
      "name": "createNPC",
      "outputs": [],
      "stateMutability": "nonpayable",
      "type": "function"
    },
    {
      "inputs": [
        {
          "internalType": "address",
          "name": "tba",
          "type": "address"
        }
      ],
      "name": "donate",
      "outputs": [],
      "stateMutability": "payable",
      "type": "function"
    },
    {
      "inputs": [],
      "name": "donationAmount",
      "outputs": [
        {
          "internalType": "uint256",
          "name": "",
          "type": "uint256"
        }
      ],
      "stateMutability": "view",
      "type": "function"
    },
    {
      "inputs": [
        {
          "internalType": "address",
          "name": "to",
          "type": "address"
        },
        {
          "internalType": "uint256",
          "name": "amount",
          "type": "uint256"
        }
      ],
      "name": "feedNPC",
      "outputs": [],
      "stateMutability": "nonpayable",
      "type": "function"
    },
    {
      "inputs": [
        {
          "internalType": "address",
          "name": "to",
          "type": "address"
        },
        {
          "internalType": "uint256",
          "name": "amount",
          "type": "uint256"
        }
      ],
      "name": "fundNPC",
      "outputs": [],
      "stateMutability": "nonpayable",
      "type": "function"
    },
    {
      "inputs": [],
      "name": "getLatestTokenId",
      "outputs": [
        {
          "internalType": "uint256",
          "name": "",
          "type": "uint256"
        }
      ],
      "stateMutability": "view",
      "type": "function"
    },
    {
      "inputs": [
        {
          "internalType": "uint256",
          "name": "tokenId",
          "type": "uint256"
        }
      ],
      "name": "getNPCStats",
      "outputs": [
        {
          "internalType": "uint8",
          "name": "",
          "type": "uint8"
        },
        {
          "internalType": "string",
          "name": "",
          "type": "string"
        }
      ],
      "stateMutability": "view",
      "type": "function"
    },
    {
      "inputs": [
        {
          "internalType": "uint256",
          "name": "tokenId",
          "type": "uint256"
        }
      ],
      "name": "goToBar",
      "outputs": [],
      "stateMutability": "nonpayable",
      "type": "function"
    },
    {
      "inputs": [
        {
          "internalType": "uint256",
          "name": "tokenId",
          "type": "uint256"
        }
      ],
      "name": "goToHome",
      "outputs": [],
      "stateMutability": "nonpayable",
      "type": "function"
    },
    {
      "inputs": [
        {
          "internalType": "uint256",
          "name": "tokenId",
          "type": "uint256"
        }
      ],
      "name": "goToSupplyDepot",
      "outputs": [],
      "stateMutability": "nonpayable",
      "type": "function"
    },
    {
      "inputs": [],
      "name": "goldenCorn",
      "outputs": [
        {
          "internalType": "contract GoldenCorn",
          "name": "",
          "type": "address"
        }
      ],
      "stateMutability": "view",
      "type": "function"
    },
    {
      "inputs": [],
      "name": "jupiterJunk",
      "outputs": [
        {
          "internalType": "contract JupiterJunk",
          "name": "",
          "type": "address"
        }
      ],
      "stateMutability": "view",
      "type": "function"
    },
    {
      "inputs": [
        {
          "internalType": "uint256",
          "name": "tokenId",
          "type": "uint256"
        }
      ],
      "name": "launchSupplyMission",
      "outputs": [],
      "stateMutability": "nonpayable",
      "type": "function"
    },
    {
      "inputs": [],
      "name": "newTokenId",
      "outputs": [
        {
          "internalType": "uint256",
          "name": "",
          "type": "uint256"
        }
      ],
      "stateMutability": "view",
      "type": "function"
    },
    {
      "inputs": [],
      "name": "owner",
      "outputs": [
        {
          "internalType": "address",
          "name": "",
          "type": "address"
        }
      ],
      "stateMutability": "view",
      "type": "function"
    },
    {
      "inputs": [],
      "name": "renounceOwnership",
      "outputs": [],
      "stateMutability": "nonpayable",
      "type": "function"
    },
    {
      "inputs": [],
      "name": "spaceSlop",
      "outputs": [
        {
          "internalType": "contract SpaceSlop",
          "name": "",
          "type": "address"
        }
      ],
      "stateMutability": "view",
      "type": "function"
    },
    {
      "inputs": [
        {
          "internalType": "address",
          "name": "to",
          "type": "address"
        },
        {
          "internalType": "uint256",
          "name": "amount",
          "type": "uint256"
        }
      ],
      "name": "supplyNPC",
      "outputs": [],
      "stateMutability": "nonpayable",
      "type": "function"
    },
    {
      "inputs": [
        {
          "internalType": "address",
          "name": "newOwner",
          "type": "address"
        }
      ],
      "name": "transferOwnership",
      "outputs": [],
      "stateMutability": "nonpayable",
      "type": "function"
    }
  ],
  "bytecode": "0x60806040523480156200001157600080fd5b50604051620012c6380380620012c6833981016040819052620000349162000132565b846001600160a01b0381166200006457604051631e4fbdf760e01b81526000600482015260240160405180910390fd5b6200006f81620000c5565b50600180546001600160a01b039586166001600160a01b031991821617909155600280549486169482169490941790935560038054928516928416929092179091556004805491909316911617905550620001a2565b600080546001600160a01b038381166001600160a01b0319831681178455604051919092169283917f8be0079c531659141344cd1fd0a4f28419497f9722a3daafe3b4186f6b6457e09190a35050565b80516001600160a01b03811681146200012d57600080fd5b919050565b600080600080600060a086880312156200014b57600080fd5b620001568662000115565b9450620001666020870162000115565b9350620001766040870162000115565b9250620001866060870162000115565b9150620001966080870162000115565b90509295509295909350565b61111480620001b26000396000f3fe60806040526004361061015e5760003560e01c806362b1bf0e116100c0578063999fe4e711610074578063bbbc850711610059578063bbbc8507146103cf578063cede7287146103ef578063f2fde38b1461041c57600080fd5b8063999fe4e71461038f578063b1e65f1f146103af57600080fd5b8063715018a6116100a5578063715018a6146103225780638da5cb5b146103375780639384fbc11461036257600080fd5b806362b1bf0e146102d557806363be09a7146102f557600080fd5b806325d112a911610117578063463d6342116100fc578063463d63421461027a5780634bed6c231461029a578063537dc21c146102b557600080fd5b806325d112a914610241578063340754ed1461026457600080fd5b80630f99ca6d116101485780630f99ca6d1461019857806310f66e5c146101cf5780632022391e1461022157600080fd5b8062362a9514610163578063025e851e14610178575b600080fd5b610176610171366004610d49565b61043c565b005b34801561018457600080fd5b50610176610193366004610d6b565b610567565b3480156101a457600080fd5b506101b86101b3366004610d95565b6105f8565b6040516101c6929190610e1c565b60405180910390f35b3480156101db57600080fd5b506001546101fc9073ffffffffffffffffffffffffffffffffffffffff1681565b60405173ffffffffffffffffffffffffffffffffffffffff90911681526020016101c6565b34801561022d57600080fd5b5061017661023c366004610d95565b610758565b34801561024d57600080fd5b506102566107af565b6040519081526020016101c6565b34801561027057600080fd5b5061025660055481565b34801561028657600080fd5b50610176610295366004610d6b565b610848565b3480156102a657600080fd5b5061025666038d7ea4c6800081565b3480156102c157600080fd5b506101766102d0366004610d95565b6108a9565b3480156102e157600080fd5b506101766102f0366004610d95565b610900565b34801561030157600080fd5b506002546101fc9073ffffffffffffffffffffffffffffffffffffffff1681565b34801561032e57600080fd5b50610176610a04565b34801561034357600080fd5b5060005473ffffffffffffffffffffffffffffffffffffffff166101fc565b34801561036e57600080fd5b506003546101fc9073ffffffffffffffffffffffffffffffffffffffff1681565b34801561039b57600080fd5b506101766103aa366004610d95565b610a18565b3480156103bb57600080fd5b506101766103ca366004610f04565b610b3d565b3480156103db57600080fd5b506101766103ea366004610d6b565b610b95565b3480156103fb57600080fd5b506004546101fc9073ffffffffffffffffffffffffffffffffffffffff1681565b34801561042857600080fd5b50610176610437366004610d49565b610bf4565b66038d7ea4c6800034146104d7576040517f08c379a000000000000000000000000000000000000000000000000000000000815260206004820152602b60248201527f446f6e6174696f6e20616d6f756e74206d7573742062652065786163746c792060448201527f302e30303120457468657200000000000000000000000000000000000000000060648201526084015b60405180910390fd5b6002546040517f40c10f1900000000000000000000000000000000000000000000000000000000815273ffffffffffffffffffffffffffffffffffffffff838116600483015260056024830152909116906340c10f19906044015b600060405180830381600087803b15801561054c57600080fd5b505af1158015610560573d6000803e3d6000fd5b5050505050565b6003546040517f40c10f1900000000000000000000000000000000000000000000000000000000815273ffffffffffffffffffffffffffffffffffffffff848116600483015260248201849052909116906340c10f19906044015b600060405180830381600087803b1580156105dc57600080fd5b505af11580156105f0573d6000803e3d6000fd5b505050505050565b6001546040517f3fc70f2c00000000000000000000000000000000000000000000000000000000815260048101839052600091606091839173ffffffffffffffffffffffffffffffffffffffff1690633fc70f2c90602401602060405180830381865afa15801561066d573d6000803e3d6000fd5b505050506040513d601f19601f820116820180604052508101906106919190610f95565b6001546040517f23bb18350000000000000000000000000000000000000000000000000000000081526004810187905291925060009173ffffffffffffffffffffffffffffffffffffffff909116906323bb183590602401600060405180830381865afa158015610706573d6000803e3d6000fd5b505050506040513d6000823e601f3d9081017fffffffffffffffffffffffffffffffffffffffffffffffffffffffffffffffe016820160405261074c9190810190610fb8565b91959194509092505050565b6001546040517f2022391e0000000000000000000000000000000000000000000000000000000081526004810183905273ffffffffffffffffffffffffffffffffffffffff90911690632022391e90602401610532565b600154604080517f8c0e8349000000000000000000000000000000000000000000000000000000008152905160009273ffffffffffffffffffffffffffffffffffffffff1691638c0e83499160048083019260209291908290030181865afa15801561081f573d6000803e3d6000fd5b505050506040513d601f19601f82011682018060405250810190610843919061102f565b905090565b600480546040517f40c10f1900000000000000000000000000000000000000000000000000000000815273ffffffffffffffffffffffffffffffffffffffff85811693820193909352602481018490529116906340c10f19906044016105c2565b6001546040517f537dc21c0000000000000000000000000000000000000000000000000000000081526004810183905273ffffffffffffffffffffffffffffffffffffffff9091169063537dc21c90602401610532565b6001546040517f3fc70f2c0000000000000000000000000000000000000000000000000000000081526004810183905260009160029173ffffffffffffffffffffffffffffffffffffffff90911690633fc70f2c90602401602060405180830381865afa158015610975573d6000803e3d6000fd5b505050506040513d601f19601f820116820180604052508101906109999190610f95565b6109a39190611077565b6001546040517f913254800000000000000000000000000000000000000000000000000000000081526004810185905260ff8316602482015291925073ffffffffffffffffffffffffffffffffffffffff16906391325480906044016105c2565b610a0c610c58565b610a166000610cab565b565b6001546040517f999fe4e70000000000000000000000000000000000000000000000000000000081526004810183905273ffffffffffffffffffffffffffffffffffffffff9091169063999fe4e790602401600060405180830381600087803b158015610a8457600080fd5b505af1158015610a98573d6000803e3d6000fd5b50506001546040517f3fc70f2c000000000000000000000000000000000000000000000000000000008152600481018590526000935073ffffffffffffffffffffffffffffffffffffffff9091169150633fc70f2c90602401602060405180830381865afa158015610b0e573d6000803e3d6000fd5b505050506040513d601f19601f82011682018060405250810190610b329190610f95565b6109a3906002611096565b6001546040517fd204c45e00000000000000000000000000000000000000000000000000000000815273ffffffffffffffffffffffffffffffffffffffff9091169063d204c45e906105c290859085906004016110af565b6002546040517f40c10f1900000000000000000000000000000000000000000000000000000000815273ffffffffffffffffffffffffffffffffffffffff848116600483015260248201849052909116906340c10f19906044016105c2565b610bfc610c58565b73ffffffffffffffffffffffffffffffffffffffff8116610c4c576040517f1e4fbdf7000000000000000000000000000000000000000000000000000000008152600060048201526024016104ce565b610c5581610cab565b50565b60005473ffffffffffffffffffffffffffffffffffffffff163314610a16576040517f118cdaa70000000000000000000000000000000000000000000000000000000081523360048201526024016104ce565b6000805473ffffffffffffffffffffffffffffffffffffffff8381167fffffffffffffffffffffffff0000000000000000000000000000000000000000831681178455604051919092169283917f8be0079c531659141344cd1fd0a4f28419497f9722a3daafe3b4186f6b6457e09190a35050565b803573ffffffffffffffffffffffffffffffffffffffff81168114610d4457600080fd5b919050565b600060208284031215610d5b57600080fd5b610d6482610d20565b9392505050565b60008060408385031215610d7e57600080fd5b610d8783610d20565b946020939093013593505050565b600060208284031215610da757600080fd5b5035919050565b60005b83811015610dc9578181015183820152602001610db1565b50506000910152565b60008151808452610dea816020860160208601610dae565b601f017fffffffffffffffffffffffffffffffffffffffffffffffffffffffffffffffe0169290920160200192915050565b60ff83168152604060208201526000610e386040830184610dd2565b949350505050565b7f4e487b7100000000000000000000000000000000000000000000000000000000600052604160045260246000fd5b604051601f82017fffffffffffffffffffffffffffffffffffffffffffffffffffffffffffffffe016810167ffffffffffffffff81118282101715610eb657610eb6610e40565b604052919050565b600067ffffffffffffffff821115610ed857610ed8610e40565b50601f017fffffffffffffffffffffffffffffffffffffffffffffffffffffffffffffffe01660200190565b60008060408385031215610f1757600080fd5b610f2083610d20565b9150602083013567ffffffffffffffff811115610f3c57600080fd5b8301601f81018513610f4d57600080fd5b8035610f60610f5b82610ebe565b610e6f565b818152866020838501011115610f7557600080fd5b816020840160208301376000602083830101528093505050509250929050565b600060208284031215610fa757600080fd5b815160ff81168114610d6457600080fd5b600060208284031215610fca57600080fd5b815167ffffffffffffffff811115610fe157600080fd5b8201601f81018413610ff257600080fd5b8051611000610f5b82610ebe565b81815285602083850101111561101557600080fd5b611026826020830160208601610dae565b95945050505050565b60006020828403121561104157600080fd5b5051919050565b7f4e487b7100000000000000000000000000000000000000000000000000000000600052601160045260246000fd5b60ff828116828216039081111561109057611090611048565b92915050565b60ff818116838216019081111561109057611090611048565b73ffffffffffffffffffffffffffffffffffffffff83168152604060208201526000610e386040830184610dd256fea2646970667358221220893ac7567b60a850c7d675fe3342a2994bd339b93a4145863fa9cf4e3389c86f64736f6c63430008140033",
  "linkReferences": {},
  "deployedLinkReferences": {}
}