{
  "_format": "hh-sol-artifact-1",
  "contractName": "Operator",
  "sourceName": "contracts/Operator.sol",
  "abi": [
    {
      "inputs": [
        {
          "internalType": "address",
          "name": "initialOwner",
          "type": "address"
        },
        {
          "internalType": "address",
          "name": "_cosmicCowboys",
          "type": "address"
        },
        {
          "internalType": "address",
          "name": "_goldenCorn",
          "type": "address"
        },
        {
          "internalType": "address",
          "name": "_spaceSlop",
          "type": "address"
        },
        {
          "internalType": "address",
          "name": "_jupiterJunk",
          "type": "address"
        }
      ],
      "stateMutability": "nonpayable",
      "type": "constructor"
    },
    {
      "inputs": [
        {
          "internalType": "address",
          "name": "owner",
          "type": "address"
        }
      ],
      "name": "OwnableInvalidOwner",
      "type": "error"
    },
    {
      "inputs": [
        {
          "internalType": "address",
          "name": "account",
          "type": "address"
        }
      ],
      "name": "OwnableUnauthorizedAccount",
      "type": "error"
    },
    {
      "anonymous": false,
      "inputs": [
        {
          "indexed": true,
          "internalType": "address",
          "name": "previousOwner",
          "type": "address"
        },
        {
          "indexed": true,
          "internalType": "address",
          "name": "newOwner",
          "type": "address"
        }
      ],
      "name": "OwnershipTransferred",
      "type": "event"
    },
    {
      "inputs": [],
      "name": "cosmicCowboys",
      "outputs": [
        {
          "internalType": "contract CosmicCowboys",
          "name": "",
          "type": "address"
        }
      ],
      "stateMutability": "view",
      "type": "function"
    },
    {
      "inputs": [
        {
          "internalType": "address",
          "name": "to",
          "type": "address"
        },
        {
          "internalType": "string",
          "name": "uri",
          "type": "string"
        }
      ],
      "name": "createNPC",
      "outputs": [],
      "stateMutability": "nonpayable",
      "type": "function"
    },
    {
      "inputs": [
        {
          "internalType": "address",
          "name": "to",
          "type": "address"
        },
        {
          "internalType": "uint256",
          "name": "amount",
          "type": "uint256"
        }
      ],
      "name": "feedNPC",
      "outputs": [],
      "stateMutability": "nonpayable",
      "type": "function"
    },
    {
      "inputs": [
        {
          "internalType": "address",
          "name": "to",
          "type": "address"
        },
        {
          "internalType": "uint256",
          "name": "amount",
          "type": "uint256"
        }
      ],
      "name": "fundNPC",
      "outputs": [],
      "stateMutability": "nonpayable",
      "type": "function"
    },
    {
      "inputs": [],
      "name": "getLatestTokenId",
      "outputs": [
        {
          "internalType": "uint256",
          "name": "",
          "type": "uint256"
        }
      ],
      "stateMutability": "view",
      "type": "function"
    },
    {
      "inputs": [
        {
          "internalType": "uint256",
          "name": "tokenId",
          "type": "uint256"
        }
      ],
      "name": "getNPCStats",
      "outputs": [
        {
          "internalType": "uint8",
          "name": "",
          "type": "uint8"
        },
        {
          "internalType": "string",
          "name": "",
          "type": "string"
        }
      ],
      "stateMutability": "view",
      "type": "function"
    },
    {
      "inputs": [],
      "name": "getOwner",
      "outputs": [
        {
          "internalType": "address",
          "name": "",
          "type": "address"
        }
      ],
      "stateMutability": "view",
      "type": "function"
    },
    {
      "inputs": [
        {
          "internalType": "uint256",
          "name": "tokenId",
          "type": "uint256"
        }
      ],
      "name": "goToBar",
      "outputs": [],
      "stateMutability": "nonpayable",
      "type": "function"
    },
    {
      "inputs": [
        {
          "internalType": "uint256",
          "name": "tokenId",
          "type": "uint256"
        }
      ],
      "name": "goToHome",
      "outputs": [],
      "stateMutability": "nonpayable",
      "type": "function"
    },
    {
      "inputs": [
        {
          "internalType": "uint256",
          "name": "tokenId",
          "type": "uint256"
        }
      ],
      "name": "goToSupplyDepot",
      "outputs": [],
      "stateMutability": "nonpayable",
      "type": "function"
    },
    {
      "inputs": [],
      "name": "goldenCorn",
      "outputs": [
        {
          "internalType": "contract GoldenCorn",
          "name": "",
          "type": "address"
        }
      ],
      "stateMutability": "view",
      "type": "function"
    },
    {
      "inputs": [],
      "name": "jupiterJunk",
      "outputs": [
        {
          "internalType": "contract JupiterJunk",
          "name": "",
          "type": "address"
        }
      ],
      "stateMutability": "view",
      "type": "function"
    },
    {
      "inputs": [
        {
          "internalType": "uint256",
          "name": "tokenId",
          "type": "uint256"
        }
      ],
      "name": "launchSupplyMission",
      "outputs": [],
      "stateMutability": "nonpayable",
      "type": "function"
    },
    {
      "inputs": [],
      "name": "newTokenId",
      "outputs": [
        {
          "internalType": "uint256",
          "name": "",
          "type": "uint256"
        }
      ],
      "stateMutability": "view",
      "type": "function"
    },
    {
      "inputs": [],
      "name": "owner",
      "outputs": [
        {
          "internalType": "address",
          "name": "",
          "type": "address"
        }
      ],
      "stateMutability": "view",
      "type": "function"
    },
    {
      "inputs": [],
      "name": "renounceOwnership",
      "outputs": [],
      "stateMutability": "nonpayable",
      "type": "function"
    },
    {
      "inputs": [],
      "name": "spaceSlop",
      "outputs": [
        {
          "internalType": "contract SpaceSlop",
          "name": "",
          "type": "address"
        }
      ],
      "stateMutability": "view",
      "type": "function"
    },
    {
      "inputs": [
        {
          "internalType": "address",
          "name": "to",
          "type": "address"
        },
        {
          "internalType": "uint256",
          "name": "amount",
          "type": "uint256"
        }
      ],
      "name": "supplyNPC",
      "outputs": [],
      "stateMutability": "nonpayable",
      "type": "function"
    },
    {
      "inputs": [
        {
          "internalType": "address",
          "name": "newOwner",
          "type": "address"
        }
      ],
      "name": "transferOwnership",
      "outputs": [],
      "stateMutability": "nonpayable",
      "type": "function"
    }
  ],
  "bytecode": "0x60806040523480156200001157600080fd5b5060405162001a0d38038062001a0d8339818101604052810190620000379190620002fc565b84600073ffffffffffffffffffffffffffffffffffffffff168173ffffffffffffffffffffffffffffffffffffffff1603620000ad5760006040517f1e4fbdf7000000000000000000000000000000000000000000000000000000008152600401620000a4919062000395565b60405180910390fd5b620000be81620001ce60201b60201c565b5083600160006101000a81548173ffffffffffffffffffffffffffffffffffffffff021916908373ffffffffffffffffffffffffffffffffffffffff16021790555082600260006101000a81548173ffffffffffffffffffffffffffffffffffffffff021916908373ffffffffffffffffffffffffffffffffffffffff16021790555081600360006101000a81548173ffffffffffffffffffffffffffffffffffffffff021916908373ffffffffffffffffffffffffffffffffffffffff16021790555080600460006101000a81548173ffffffffffffffffffffffffffffffffffffffff021916908373ffffffffffffffffffffffffffffffffffffffff1602179055505050505050620003b2565b60008060009054906101000a900473ffffffffffffffffffffffffffffffffffffffff169050816000806101000a81548173ffffffffffffffffffffffffffffffffffffffff021916908373ffffffffffffffffffffffffffffffffffffffff1602179055508173ffffffffffffffffffffffffffffffffffffffff168173ffffffffffffffffffffffffffffffffffffffff167f8be0079c531659141344cd1fd0a4f28419497f9722a3daafe3b4186f6b6457e060405160405180910390a35050565b600080fd5b600073ffffffffffffffffffffffffffffffffffffffff82169050919050565b6000620002c48262000297565b9050919050565b620002d681620002b7565b8114620002e257600080fd5b50565b600081519050620002f681620002cb565b92915050565b600080600080600060a086880312156200031b576200031a62000292565b5b60006200032b88828901620002e5565b95505060206200033e88828901620002e5565b94505060406200035188828901620002e5565b93505060606200036488828901620002e5565b92505060806200037788828901620002e5565b9150509295509295909350565b6200038f81620002b7565b82525050565b6000602082019050620003ac600083018462000384565b92915050565b61164b80620003c26000396000f3fe608060405234801561001057600080fd5b50600436106101215760003560e01c806363be09a7116100ad578063999fe4e711610071578063999fe4e7146102bf578063b1e65f1f146102db578063bbbc8507146102f7578063cede728714610313578063f2fde38b1461033157610121565b806363be09a71461023d578063715018a61461025b578063893d20e8146102655780638da5cb5b146102835780639384fbc1146102a157610121565b806325d112a9116100f457806325d112a9146101ad578063340754ed146101cb578063463d6342146101e9578063537dc21c1461020557806362b1bf0e1461022157610121565b8063025e851e146101265780630f99ca6d1461014257806310f66e5c146101735780632022391e14610191575b600080fd5b610140600480360381019061013b9190610f1d565b61034d565b005b61015c60048036038101906101579190610f5d565b6103e0565b60405161016a929190611036565b60405180910390f35b61017b610536565b60405161018891906110c5565b60405180910390f35b6101ab60048036038101906101a69190610f5d565b61055c565b005b6101b56105ec565b6040516101c291906110ef565b60405180910390f35b6101d3610684565b6040516101e091906110ef565b60405180910390f35b61020360048036038101906101fe9190610f1d565b61068a565b005b61021f600480360381019061021a9190610f5d565b61071d565b005b61023b60048036038101906102369190610f5d565b6107ad565b005b6102456108ec565b604051610252919061112b565b60405180910390f35b610263610912565b005b61026d610926565b60405161027a9190611155565b60405180910390f35b61028b610935565b6040516102989190611155565b60405180910390f35b6102a961095e565b6040516102b69190611191565b60405180910390f35b6102d960048036038101906102d49190610f5d565b610984565b005b6102f560048036038101906102f091906112e1565b610b50565b005b610311600480360381019061030c9190610f1d565b610be3565b005b61031b610c76565b604051610328919061135e565b60405180910390f35b61034b60048036038101906103469190611379565b610c9c565b005b600360009054906101000a900473ffffffffffffffffffffffffffffffffffffffff1673ffffffffffffffffffffffffffffffffffffffff166340c10f1983836040518363ffffffff1660e01b81526004016103aa9291906113a6565b600060405180830381600087803b1580156103c457600080fd5b505af11580156103d8573d6000803e3d6000fd5b505050505050565b600060606000600160009054906101000a900473ffffffffffffffffffffffffffffffffffffffff1673ffffffffffffffffffffffffffffffffffffffff16633fc70f2c856040518263ffffffff1660e01b815260040161044191906110ef565b602060405180830381865afa15801561045e573d6000803e3d6000fd5b505050506040513d601f19601f8201168201806040525081019061048291906113fb565b90506000600160009054906101000a900473ffffffffffffffffffffffffffffffffffffffff1673ffffffffffffffffffffffffffffffffffffffff166323bb1835866040518263ffffffff1660e01b81526004016104e191906110ef565b600060405180830381865afa1580156104fe573d6000803e3d6000fd5b505050506040513d6000823e3d601f19601f820116820180604052508101906105279190611498565b90508181935093505050915091565b600160009054906101000a900473ffffffffffffffffffffffffffffffffffffffff1681565b600160009054906101000a900473ffffffffffffffffffffffffffffffffffffffff1673ffffffffffffffffffffffffffffffffffffffff16632022391e826040518263ffffffff1660e01b81526004016105b791906110ef565b600060405180830381600087803b1580156105d157600080fd5b505af11580156105e5573d6000803e3d6000fd5b5050505050565b6000600160009054906101000a900473ffffffffffffffffffffffffffffffffffffffff1673ffffffffffffffffffffffffffffffffffffffff16638c0e83496040518163ffffffff1660e01b8152600401602060405180830381865afa15801561065b573d6000803e3d6000fd5b505050506040513d601f19601f8201168201806040525081019061067f91906114f6565b905090565b60055481565b600460009054906101000a900473ffffffffffffffffffffffffffffffffffffffff1673ffffffffffffffffffffffffffffffffffffffff166340c10f1983836040518363ffffffff1660e01b81526004016106e79291906113a6565b600060405180830381600087803b15801561070157600080fd5b505af1158015610715573d6000803e3d6000fd5b505050505050565b600160009054906101000a900473ffffffffffffffffffffffffffffffffffffffff1673ffffffffffffffffffffffffffffffffffffffff1663537dc21c826040518263ffffffff1660e01b815260040161077891906110ef565b600060405180830381600087803b15801561079257600080fd5b505af11580156107a6573d6000803e3d6000fd5b5050505050565b60006002600160009054906101000a900473ffffffffffffffffffffffffffffffffffffffff1673ffffffffffffffffffffffffffffffffffffffff16633fc70f2c846040518263ffffffff1660e01b815260040161080c91906110ef565b602060405180830381865afa158015610829573d6000803e3d6000fd5b505050506040513d601f19601f8201168201806040525081019061084d91906113fb565b6108579190611552565b9050600160009054906101000a900473ffffffffffffffffffffffffffffffffffffffff1673ffffffffffffffffffffffffffffffffffffffff16639132548083836040518363ffffffff1660e01b81526004016108b6929190611587565b600060405180830381600087803b1580156108d057600080fd5b505af11580156108e4573d6000803e3d6000fd5b505050505050565b600260009054906101000a900473ffffffffffffffffffffffffffffffffffffffff1681565b61091a610d22565b6109246000610da9565b565b6000610930610935565b905090565b60008060009054906101000a900473ffffffffffffffffffffffffffffffffffffffff16905090565b600360009054906101000a900473ffffffffffffffffffffffffffffffffffffffff1681565b600160009054906101000a900473ffffffffffffffffffffffffffffffffffffffff1673ffffffffffffffffffffffffffffffffffffffff1663999fe4e7826040518263ffffffff1660e01b81526004016109df91906110ef565b600060405180830381600087803b1580156109f957600080fd5b505af1158015610a0d573d6000803e3d6000fd5b5050505060006002600160009054906101000a900473ffffffffffffffffffffffffffffffffffffffff1673ffffffffffffffffffffffffffffffffffffffff16633fc70f2c846040518263ffffffff1660e01b8152600401610a7091906110ef565b602060405180830381865afa158015610a8d573d6000803e3d6000fd5b505050506040513d601f19601f82011682018060405250810190610ab191906113fb565b610abb91906115b0565b9050600160009054906101000a900473ffffffffffffffffffffffffffffffffffffffff1673ffffffffffffffffffffffffffffffffffffffff16639132548083836040518363ffffffff1660e01b8152600401610b1a929190611587565b600060405180830381600087803b158015610b3457600080fd5b505af1158015610b48573d6000803e3d6000fd5b505050505050565b600160009054906101000a900473ffffffffffffffffffffffffffffffffffffffff1673ffffffffffffffffffffffffffffffffffffffff1663d204c45e83836040518363ffffffff1660e01b8152600401610bad9291906115e5565b600060405180830381600087803b158015610bc757600080fd5b505af1158015610bdb573d6000803e3d6000fd5b505050505050565b600260009054906101000a900473ffffffffffffffffffffffffffffffffffffffff1673ffffffffffffffffffffffffffffffffffffffff166340c10f1983836040518363ffffffff1660e01b8152600401610c409291906113a6565b600060405180830381600087803b158015610c5a57600080fd5b505af1158015610c6e573d6000803e3d6000fd5b505050505050565b600460009054906101000a900473ffffffffffffffffffffffffffffffffffffffff1681565b610ca4610d22565b600073ffffffffffffffffffffffffffffffffffffffff168173ffffffffffffffffffffffffffffffffffffffff1603610d165760006040517f1e4fbdf7000000000000000000000000000000000000000000000000000000008152600401610d0d9190611155565b60405180910390fd5b610d1f81610da9565b50565b610d2a610e6d565b73ffffffffffffffffffffffffffffffffffffffff16610d48610935565b73ffffffffffffffffffffffffffffffffffffffff1614610da757610d6b610e6d565b6040517f118cdaa7000000000000000000000000000000000000000000000000000000008152600401610d9e9190611155565b60405180910390fd5b565b60008060009054906101000a900473ffffffffffffffffffffffffffffffffffffffff169050816000806101000a81548173ffffffffffffffffffffffffffffffffffffffff021916908373ffffffffffffffffffffffffffffffffffffffff1602179055508173ffffffffffffffffffffffffffffffffffffffff168173ffffffffffffffffffffffffffffffffffffffff167f8be0079c531659141344cd1fd0a4f28419497f9722a3daafe3b4186f6b6457e060405160405180910390a35050565b600033905090565b6000604051905090565b600080fd5b600080fd5b600073ffffffffffffffffffffffffffffffffffffffff82169050919050565b6000610eb482610e89565b9050919050565b610ec481610ea9565b8114610ecf57600080fd5b50565b600081359050610ee181610ebb565b92915050565b6000819050919050565b610efa81610ee7565b8114610f0557600080fd5b50565b600081359050610f1781610ef1565b92915050565b60008060408385031215610f3457610f33610e7f565b5b6000610f4285828601610ed2565b9250506020610f5385828601610f08565b9150509250929050565b600060208284031215610f7357610f72610e7f565b5b6000610f8184828501610f08565b91505092915050565b600060ff82169050919050565b610fa081610f8a565b82525050565b600081519050919050565b600082825260208201905092915050565b60005b83811015610fe0578082015181840152602081019050610fc5565b60008484015250505050565b6000601f19601f8301169050919050565b600061100882610fa6565b6110128185610fb1565b9350611022818560208601610fc2565b61102b81610fec565b840191505092915050565b600060408201905061104b6000830185610f97565b818103602083015261105d8184610ffd565b90509392505050565b6000819050919050565b600061108b61108661108184610e89565b611066565b610e89565b9050919050565b600061109d82611070565b9050919050565b60006110af82611092565b9050919050565b6110bf816110a4565b82525050565b60006020820190506110da60008301846110b6565b92915050565b6110e981610ee7565b82525050565b600060208201905061110460008301846110e0565b92915050565b600061111582611092565b9050919050565b6111258161110a565b82525050565b6000602082019050611140600083018461111c565b92915050565b61114f81610ea9565b82525050565b600060208201905061116a6000830184611146565b92915050565b600061117b82611092565b9050919050565b61118b81611170565b82525050565b60006020820190506111a66000830184611182565b92915050565b600080fd5b600080fd5b7f4e487b7100000000000000000000000000000000000000000000000000000000600052604160045260246000fd5b6111ee82610fec565b810181811067ffffffffffffffff8211171561120d5761120c6111b6565b5b80604052505050565b6000611220610e75565b905061122c82826111e5565b919050565b600067ffffffffffffffff82111561124c5761124b6111b6565b5b61125582610fec565b9050602081019050919050565b82818337600083830152505050565b600061128461127f84611231565b611216565b9050828152602081018484840111156112a05761129f6111b1565b5b6112ab848285611262565b509392505050565b600082601f8301126112c8576112c76111ac565b5b81356112d8848260208601611271565b91505092915050565b600080604083850312156112f8576112f7610e7f565b5b600061130685828601610ed2565b925050602083013567ffffffffffffffff81111561132757611326610e84565b5b611333858286016112b3565b9150509250929050565b600061134882611092565b9050919050565b6113588161133d565b82525050565b6000602082019050611373600083018461134f565b92915050565b60006020828403121561138f5761138e610e7f565b5b600061139d84828501610ed2565b91505092915050565b60006040820190506113bb6000830185611146565b6113c860208301846110e0565b9392505050565b6113d881610f8a565b81146113e357600080fd5b50565b6000815190506113f5816113cf565b92915050565b60006020828403121561141157611410610e7f565b5b600061141f848285016113e6565b91505092915050565b600061143b61143684611231565b611216565b905082815260208101848484011115611457576114566111b1565b5b611462848285610fc2565b509392505050565b600082601f83011261147f5761147e6111ac565b5b815161148f848260208601611428565b91505092915050565b6000602082840312156114ae576114ad610e7f565b5b600082015167ffffffffffffffff8111156114cc576114cb610e84565b5b6114d88482850161146a565b91505092915050565b6000815190506114f081610ef1565b92915050565b60006020828403121561150c5761150b610e7f565b5b600061151a848285016114e1565b91505092915050565b7f4e487b7100000000000000000000000000000000000000000000000000000000600052601160045260246000fd5b600061155d82610f8a565b915061156883610f8a565b9250828203905060ff81111561158157611580611523565b5b92915050565b600060408201905061159c60008301856110e0565b6115a96020830184610f97565b9392505050565b60006115bb82610f8a565b91506115c683610f8a565b9250828201905060ff8111156115df576115de611523565b5b92915050565b60006040820190506115fa6000830185611146565b818103602083015261160c8184610ffd565b9050939250505056fea26469706673582212209b85345334d14f3f0fb1134b9dea94276fb440573589beb653084c66df0d7d7f64736f6c63430008140033",
  "linkReferences": {},
  "deployedLinkReferences": {}
}