{
  "_format": "hh-sol-artifact-1",
  "contractName": "Operator",
  "sourceName": "contracts/Operator.sol",
  "abi": [
    {
      "inputs": [
        {
          "internalType": "address",
          "name": "initialOwner",
          "type": "address"
        },
        {
          "internalType": "address",
          "name": "_cosmicCowboys",
          "type": "address"
        },
        {
          "internalType": "address",
          "name": "_goldenCorn",
          "type": "address"
        },
        {
          "internalType": "address",
          "name": "_spaceSlop",
          "type": "address"
        },
        {
          "internalType": "address",
          "name": "_jupiterJunk",
          "type": "address"
        }
      ],
      "stateMutability": "nonpayable",
      "type": "constructor"
    },
    {
      "inputs": [
        {
          "internalType": "address",
          "name": "owner",
          "type": "address"
        }
      ],
      "name": "OwnableInvalidOwner",
      "type": "error"
    },
    {
      "inputs": [
        {
          "internalType": "address",
          "name": "account",
          "type": "address"
        }
      ],
      "name": "OwnableUnauthorizedAccount",
      "type": "error"
    },
    {
      "anonymous": false,
      "inputs": [
        {
          "indexed": true,
          "internalType": "address",
          "name": "previousOwner",
          "type": "address"
        },
        {
          "indexed": true,
          "internalType": "address",
          "name": "newOwner",
          "type": "address"
        }
      ],
      "name": "OwnershipTransferred",
      "type": "event"
    },
    {
      "inputs": [],
      "name": "cosmicCowboys",
      "outputs": [
        {
          "internalType": "contract CosmicCowboys",
          "name": "",
          "type": "address"
        }
      ],
      "stateMutability": "view",
      "type": "function"
    },
    {
      "inputs": [
        {
          "internalType": "address",
          "name": "to",
          "type": "address"
        },
        {
          "internalType": "string",
          "name": "uri",
          "type": "string"
        }
      ],
      "name": "createNPC",
      "outputs": [],
      "stateMutability": "nonpayable",
      "type": "function"
    },
    {
      "inputs": [
        {
          "internalType": "address",
          "name": "to",
          "type": "address"
        },
        {
          "internalType": "uint256",
          "name": "amount",
          "type": "uint256"
        }
      ],
      "name": "feedNPC",
      "outputs": [],
      "stateMutability": "nonpayable",
      "type": "function"
    },
    {
      "inputs": [
        {
          "internalType": "address",
          "name": "to",
          "type": "address"
        },
        {
          "internalType": "uint256",
          "name": "amount",
          "type": "uint256"
        }
      ],
      "name": "fundNPC",
      "outputs": [],
      "stateMutability": "nonpayable",
      "type": "function"
    },
    {
      "inputs": [],
      "name": "getLatestTokenId",
      "outputs": [
        {
          "internalType": "uint256",
          "name": "",
          "type": "uint256"
        }
      ],
      "stateMutability": "view",
      "type": "function"
    },
    {
      "inputs": [
        {
          "internalType": "uint256",
          "name": "tokenId",
          "type": "uint256"
        }
      ],
      "name": "getNPCStats",
      "outputs": [
        {
          "internalType": "uint8",
          "name": "",
          "type": "uint8"
        },
        {
          "internalType": "string",
          "name": "",
          "type": "string"
        }
      ],
      "stateMutability": "view",
      "type": "function"
    },
    {
      "inputs": [],
      "name": "getOwner",
      "outputs": [
        {
          "internalType": "address",
          "name": "",
          "type": "address"
        }
      ],
      "stateMutability": "view",
      "type": "function"
    },
    {
      "inputs": [
        {
          "internalType": "uint256",
          "name": "tokenId",
          "type": "uint256"
        }
      ],
      "name": "goToBar",
      "outputs": [],
      "stateMutability": "nonpayable",
      "type": "function"
    },
    {
      "inputs": [
        {
          "internalType": "uint256",
          "name": "tokenId",
          "type": "uint256"
        }
      ],
      "name": "goToHome",
      "outputs": [],
      "stateMutability": "nonpayable",
      "type": "function"
    },
    {
      "inputs": [
        {
          "internalType": "uint256",
          "name": "tokenId",
          "type": "uint256"
        }
      ],
      "name": "goToSupplyDepot",
      "outputs": [],
      "stateMutability": "nonpayable",
      "type": "function"
    },
    {
      "inputs": [],
      "name": "goldenCorn",
      "outputs": [
        {
          "internalType": "contract GoldenCorn",
          "name": "",
          "type": "address"
        }
      ],
      "stateMutability": "view",
      "type": "function"
    },
    {
      "inputs": [],
      "name": "jupiterJunk",
      "outputs": [
        {
          "internalType": "contract JupiterJunk",
          "name": "",
          "type": "address"
        }
      ],
      "stateMutability": "view",
      "type": "function"
    },
    {
      "inputs": [
        {
          "internalType": "uint256",
          "name": "tokenId",
          "type": "uint256"
        }
      ],
      "name": "launchSupplyMission",
      "outputs": [],
      "stateMutability": "nonpayable",
      "type": "function"
    },
    {
      "inputs": [],
      "name": "newTokenId",
      "outputs": [
        {
          "internalType": "uint256",
          "name": "",
          "type": "uint256"
        }
      ],
      "stateMutability": "view",
      "type": "function"
    },
    {
      "inputs": [],
      "name": "owner",
      "outputs": [
        {
          "internalType": "address",
          "name": "",
          "type": "address"
        }
      ],
      "stateMutability": "view",
      "type": "function"
    },
    {
      "inputs": [],
      "name": "renounceOwnership",
      "outputs": [],
      "stateMutability": "nonpayable",
      "type": "function"
    },
    {
      "inputs": [],
      "name": "spaceSlop",
      "outputs": [
        {
          "internalType": "contract SpaceSlop",
          "name": "",
          "type": "address"
        }
      ],
      "stateMutability": "view",
      "type": "function"
    },
    {
      "inputs": [
        {
          "internalType": "address",
          "name": "to",
          "type": "address"
        },
        {
          "internalType": "uint256",
          "name": "amount",
          "type": "uint256"
        }
      ],
      "name": "supplyNPC",
      "outputs": [],
      "stateMutability": "nonpayable",
      "type": "function"
    },
    {
      "inputs": [
        {
          "internalType": "address",
          "name": "newOwner",
          "type": "address"
        }
      ],
      "name": "transferOwnership",
      "outputs": [],
      "stateMutability": "nonpayable",
      "type": "function"
    }
  ],
  "bytecode": "0x60806040523480156200001157600080fd5b50604051620010ac380380620010ac833981016040819052620000349162000132565b846001600160a01b0381166200006457604051631e4fbdf760e01b81526000600482015260240160405180910390fd5b6200006f81620000c5565b50600180546001600160a01b039586166001600160a01b031991821617909155600280549486169482169490941790935560038054928516928416929092179091556004805491909316911617905550620001a2565b600080546001600160a01b038381166001600160a01b0319831681178455604051919092169283917f8be0079c531659141344cd1fd0a4f28419497f9722a3daafe3b4186f6b6457e09190a35050565b80516001600160a01b03811681146200012d57600080fd5b919050565b600080600080600060a086880312156200014b57600080fd5b620001568662000115565b9450620001666020870162000115565b9350620001766040870162000115565b9250620001866060870162000115565b9150620001966080870162000115565b90509295509295909350565b610efa80620001b26000396000f3fe608060405234801561001057600080fd5b50600436106101515760003560e01c806363be09a7116100cd578063999fe4e711610081578063bbbc850711610066578063bbbc8507146102d1578063cede7287146102e4578063f2fde38b1461030457600080fd5b8063999fe4e7146102ab578063b1e65f1f146102be57600080fd5b8063893d20e8116100b2578063893d20e81461026d5780638da5cb5b1461026d5780639384fbc11461028b57600080fd5b806363be09a714610245578063715018a61461026557600080fd5b806325d112a911610124578063463d634211610109578063463d63421461020c578063537dc21c1461021f57806362b1bf0e1461023257600080fd5b806325d112a9146101ed578063340754ed1461020357600080fd5b8063025e851e146101565780630f99ca6d1461016b57806310f66e5c146101955780632022391e146101da575b600080fd5b610169610164366004610b2f565b610317565b005b61017e610179366004610b59565b6103a8565b60405161018c929190610be0565b60405180910390f35b6001546101b59073ffffffffffffffffffffffffffffffffffffffff1681565b60405173ffffffffffffffffffffffffffffffffffffffff909116815260200161018c565b6101696101e8366004610b59565b610508565b6101f5610590565b60405190815260200161018c565b6101f560055481565b61016961021a366004610b2f565b610629565b61016961022d366004610b59565b61068a565b610169610240366004610b59565b6106e1565b6002546101b59073ffffffffffffffffffffffffffffffffffffffff1681565b6101696107e5565b60005473ffffffffffffffffffffffffffffffffffffffff166101b5565b6003546101b59073ffffffffffffffffffffffffffffffffffffffff1681565b6101696102b9366004610b59565b6107f9565b6101696102cc366004610cc8565b61091e565b6101696102df366004610b2f565b610976565b6004546101b59073ffffffffffffffffffffffffffffffffffffffff1681565b610169610312366004610d59565b6109d5565b6003546040517f40c10f1900000000000000000000000000000000000000000000000000000000815273ffffffffffffffffffffffffffffffffffffffff848116600483015260248201849052909116906340c10f19906044015b600060405180830381600087803b15801561038c57600080fd5b505af11580156103a0573d6000803e3d6000fd5b505050505050565b6001546040517f3fc70f2c00000000000000000000000000000000000000000000000000000000815260048101839052600091606091839173ffffffffffffffffffffffffffffffffffffffff1690633fc70f2c90602401602060405180830381865afa15801561041d573d6000803e3d6000fd5b505050506040513d601f19601f820116820180604052508101906104419190610d7b565b6001546040517f23bb18350000000000000000000000000000000000000000000000000000000081526004810187905291925060009173ffffffffffffffffffffffffffffffffffffffff909116906323bb183590602401600060405180830381865afa1580156104b6573d6000803e3d6000fd5b505050506040513d6000823e601f3d9081017fffffffffffffffffffffffffffffffffffffffffffffffffffffffffffffffe01682016040526104fc9190810190610d9e565b91959194509092505050565b6001546040517f2022391e0000000000000000000000000000000000000000000000000000000081526004810183905273ffffffffffffffffffffffffffffffffffffffff90911690632022391e906024015b600060405180830381600087803b15801561057557600080fd5b505af1158015610589573d6000803e3d6000fd5b5050505050565b600154604080517f8c0e8349000000000000000000000000000000000000000000000000000000008152905160009273ffffffffffffffffffffffffffffffffffffffff1691638c0e83499160048083019260209291908290030181865afa158015610600573d6000803e3d6000fd5b505050506040513d601f19601f820116820180604052508101906106249190610e15565b905090565b600480546040517f40c10f1900000000000000000000000000000000000000000000000000000000815273ffffffffffffffffffffffffffffffffffffffff85811693820193909352602481018490529116906340c10f1990604401610372565b6001546040517f537dc21c0000000000000000000000000000000000000000000000000000000081526004810183905273ffffffffffffffffffffffffffffffffffffffff9091169063537dc21c9060240161055b565b6001546040517f3fc70f2c0000000000000000000000000000000000000000000000000000000081526004810183905260009160029173ffffffffffffffffffffffffffffffffffffffff90911690633fc70f2c90602401602060405180830381865afa158015610756573d6000803e3d6000fd5b505050506040513d601f19601f8201168201806040525081019061077a9190610d7b565b6107849190610e5d565b6001546040517f913254800000000000000000000000000000000000000000000000000000000081526004810185905260ff8316602482015291925073ffffffffffffffffffffffffffffffffffffffff1690639132548090604401610372565b6107ed610a3e565b6107f76000610a91565b565b6001546040517f999fe4e70000000000000000000000000000000000000000000000000000000081526004810183905273ffffffffffffffffffffffffffffffffffffffff9091169063999fe4e790602401600060405180830381600087803b15801561086557600080fd5b505af1158015610879573d6000803e3d6000fd5b50506001546040517f3fc70f2c000000000000000000000000000000000000000000000000000000008152600481018590526000935073ffffffffffffffffffffffffffffffffffffffff9091169150633fc70f2c90602401602060405180830381865afa1580156108ef573d6000803e3d6000fd5b505050506040513d601f19601f820116820180604052508101906109139190610d7b565b610784906002610e7c565b6001546040517fd204c45e00000000000000000000000000000000000000000000000000000000815273ffffffffffffffffffffffffffffffffffffffff9091169063d204c45e906103729085908590600401610e95565b6002546040517f40c10f1900000000000000000000000000000000000000000000000000000000815273ffffffffffffffffffffffffffffffffffffffff848116600483015260248201849052909116906340c10f1990604401610372565b6109dd610a3e565b73ffffffffffffffffffffffffffffffffffffffff8116610a32576040517f1e4fbdf7000000000000000000000000000000000000000000000000000000008152600060048201526024015b60405180910390fd5b610a3b81610a91565b50565b60005473ffffffffffffffffffffffffffffffffffffffff1633146107f7576040517f118cdaa7000000000000000000000000000000000000000000000000000000008152336004820152602401610a29565b6000805473ffffffffffffffffffffffffffffffffffffffff8381167fffffffffffffffffffffffff0000000000000000000000000000000000000000831681178455604051919092169283917f8be0079c531659141344cd1fd0a4f28419497f9722a3daafe3b4186f6b6457e09190a35050565b803573ffffffffffffffffffffffffffffffffffffffff81168114610b2a57600080fd5b919050565b60008060408385031215610b4257600080fd5b610b4b83610b06565b946020939093013593505050565b600060208284031215610b6b57600080fd5b5035919050565b60005b83811015610b8d578181015183820152602001610b75565b50506000910152565b60008151808452610bae816020860160208601610b72565b601f017fffffffffffffffffffffffffffffffffffffffffffffffffffffffffffffffe0169290920160200192915050565b60ff83168152604060208201526000610bfc6040830184610b96565b949350505050565b7f4e487b7100000000000000000000000000000000000000000000000000000000600052604160045260246000fd5b604051601f82017fffffffffffffffffffffffffffffffffffffffffffffffffffffffffffffffe016810167ffffffffffffffff81118282101715610c7a57610c7a610c04565b604052919050565b600067ffffffffffffffff821115610c9c57610c9c610c04565b50601f017fffffffffffffffffffffffffffffffffffffffffffffffffffffffffffffffe01660200190565b60008060408385031215610cdb57600080fd5b610ce483610b06565b9150602083013567ffffffffffffffff811115610d0057600080fd5b8301601f81018513610d1157600080fd5b8035610d24610d1f82610c82565b610c33565b818152866020838501011115610d3957600080fd5b816020840160208301376000602083830101528093505050509250929050565b600060208284031215610d6b57600080fd5b610d7482610b06565b9392505050565b600060208284031215610d8d57600080fd5b815160ff81168114610d7457600080fd5b600060208284031215610db057600080fd5b815167ffffffffffffffff811115610dc757600080fd5b8201601f81018413610dd857600080fd5b8051610de6610d1f82610c82565b818152856020838501011115610dfb57600080fd5b610e0c826020830160208601610b72565b95945050505050565b600060208284031215610e2757600080fd5b5051919050565b7f4e487b7100000000000000000000000000000000000000000000000000000000600052601160045260246000fd5b60ff8281168282160390811115610e7657610e76610e2e565b92915050565b60ff8181168382160190811115610e7657610e76610e2e565b73ffffffffffffffffffffffffffffffffffffffff83168152604060208201526000610bfc6040830184610b9656fea2646970667358221220f62483d1c07df4e1d912d56f206cf22fa15b936d52926dbb7283320c7497cb5364736f6c63430008140033",
  "linkReferences": {},
  "deployedLinkReferences": {}
}